{
  "_format": "hh-sol-artifact-1",
  "contractName": "BDLAirdropDistributor",
  "sourceName": "contracts/BDLAirdropDistributor.sol",
  "abi": [
    {
      "inputs": [
        {
          "internalType": "address",
          "name": "token_",
          "type": "address"
        },
        {
          "internalType": "address",
          "name": "admin_",
          "type": "address"
        }
      ],
      "stateMutability": "nonpayable",
      "type": "constructor"
    },
    {
      "inputs": [],
      "name": "AccessControlBadConfirmation",
      "type": "error"
    },
    {
      "inputs": [
        {
          "internalType": "address",
          "name": "account",
          "type": "address"
        },
        {
          "internalType": "bytes32",
          "name": "neededRole",
          "type": "bytes32"
        }
      ],
      "name": "AccessControlUnauthorizedAccount",
      "type": "error"
    },
    {
      "inputs": [],
      "name": "ReentrancyGuardReentrantCall",
      "type": "error"
    },
    {
      "inputs": [
        {
          "internalType": "address",
          "name": "token",
          "type": "address"
        }
      ],
      "name": "SafeERC20FailedOperation",
      "type": "error"
    },
    {
      "anonymous": false,
      "inputs": [
        {
          "indexed": true,
          "internalType": "uint256",
          "name": "round",
          "type": "uint256"
        },
        {
          "indexed": false,
          "internalType": "uint256",
          "name": "index",
          "type": "uint256"
        },
        {
          "indexed": true,
          "internalType": "address",
          "name": "account",
          "type": "address"
        },
        {
          "indexed": false,
          "internalType": "uint256",
          "name": "amount",
          "type": "uint256"
        }
      ],
      "name": "Claimed",
      "type": "event"
    },
    {
      "anonymous": false,
      "inputs": [
        {
          "indexed": true,
          "internalType": "bytes32",
          "name": "role",
          "type": "bytes32"
        },
        {
          "indexed": true,
          "internalType": "bytes32",
          "name": "previousAdminRole",
          "type": "bytes32"
        },
        {
          "indexed": true,
          "internalType": "bytes32",
          "name": "newAdminRole",
          "type": "bytes32"
        }
      ],
      "name": "RoleAdminChanged",
      "type": "event"
    },
    {
      "anonymous": false,
      "inputs": [
        {
          "indexed": true,
          "internalType": "bytes32",
          "name": "role",
          "type": "bytes32"
        },
        {
          "indexed": true,
          "internalType": "address",
          "name": "account",
          "type": "address"
        },
        {
          "indexed": true,
          "internalType": "address",
          "name": "sender",
          "type": "address"
        }
      ],
      "name": "RoleGranted",
      "type": "event"
    },
    {
      "anonymous": false,
      "inputs": [
        {
          "indexed": true,
          "internalType": "bytes32",
          "name": "role",
          "type": "bytes32"
        },
        {
          "indexed": true,
          "internalType": "address",
          "name": "account",
          "type": "address"
        },
        {
          "indexed": true,
          "internalType": "address",
          "name": "sender",
          "type": "address"
        }
      ],
      "name": "RoleRevoked",
      "type": "event"
    },
    {
      "anonymous": false,
      "inputs": [
        {
          "indexed": true,
          "internalType": "uint256",
          "name": "round",
          "type": "uint256"
        },
        {
          "indexed": false,
          "internalType": "bytes32",
          "name": "root",
          "type": "bytes32"
        }
      ],
      "name": "RootUpdated",
      "type": "event"
    },
    {
      "anonymous": false,
      "inputs": [
        {
          "indexed": true,
          "internalType": "address",
          "name": "to",
          "type": "address"
        },
        {
          "indexed": false,
          "internalType": "uint256",
          "name": "amount",
          "type": "uint256"
        }
      ],
      "name": "Swept",
      "type": "event"
    },
    {
      "inputs": [],
      "name": "DEFAULT_ADMIN_ROLE",
      "outputs": [
        {
          "internalType": "bytes32",
          "name": "",
          "type": "bytes32"
        }
      ],
      "stateMutability": "view",
      "type": "function"
    },
    {
      "inputs": [],
      "name": "ROOT_MANAGER_ROLE",
      "outputs": [
        {
          "internalType": "bytes32",
          "name": "",
          "type": "bytes32"
        }
      ],
      "stateMutability": "view",
      "type": "function"
    },
    {
      "inputs": [
        {
          "internalType": "uint256",
          "name": "round",
          "type": "uint256"
        },
        {
          "internalType": "uint256",
          "name": "index",
          "type": "uint256"
        },
        {
          "internalType": "address",
          "name": "account",
          "type": "address"
        },
        {
          "internalType": "uint256",
          "name": "amount",
          "type": "uint256"
        },
        {
          "internalType": "bytes32[]",
          "name": "proof",
          "type": "bytes32[]"
        }
      ],
      "name": "claim",
      "outputs": [],
      "stateMutability": "nonpayable",
      "type": "function"
    },
    {
      "inputs": [
        {
          "internalType": "bytes32",
          "name": "role",
          "type": "bytes32"
        }
      ],
      "name": "getRoleAdmin",
      "outputs": [
        {
          "internalType": "bytes32",
          "name": "",
          "type": "bytes32"
        }
      ],
      "stateMutability": "view",
      "type": "function"
    },
    {
      "inputs": [
        {
          "internalType": "bytes32",
          "name": "role",
          "type": "bytes32"
        },
        {
          "internalType": "address",
          "name": "account",
          "type": "address"
        }
      ],
      "name": "grantRole",
      "outputs": [],
      "stateMutability": "nonpayable",
      "type": "function"
    },
    {
      "inputs": [
        {
          "internalType": "bytes32",
          "name": "role",
          "type": "bytes32"
        },
        {
          "internalType": "address",
          "name": "account",
          "type": "address"
        }
      ],
      "name": "hasRole",
      "outputs": [
        {
          "internalType": "bool",
          "name": "",
          "type": "bool"
        }
      ],
      "stateMutability": "view",
      "type": "function"
    },
    {
      "inputs": [
        {
          "internalType": "uint256",
          "name": "round",
          "type": "uint256"
        },
        {
          "internalType": "uint256",
          "name": "index",
          "type": "uint256"
        }
      ],
      "name": "isClaimed",
      "outputs": [
        {
          "internalType": "bool",
          "name": "",
          "type": "bool"
        }
      ],
      "stateMutability": "view",
      "type": "function"
    },
    {
      "inputs": [
        {
          "internalType": "bytes32",
          "name": "role",
          "type": "bytes32"
        },
        {
          "internalType": "address",
          "name": "callerConfirmation",
          "type": "address"
        }
      ],
      "name": "renounceRole",
      "outputs": [],
      "stateMutability": "nonpayable",
      "type": "function"
    },
    {
      "inputs": [
        {
          "internalType": "bytes32",
          "name": "role",
          "type": "bytes32"
        },
        {
          "internalType": "address",
          "name": "account",
          "type": "address"
        }
      ],
      "name": "revokeRole",
      "outputs": [],
      "stateMutability": "nonpayable",
      "type": "function"
    },
    {
      "inputs": [
        {
          "internalType": "uint256",
          "name": "",
          "type": "uint256"
        }
      ],
      "name": "roots",
      "outputs": [
        {
          "internalType": "bytes32",
          "name": "",
          "type": "bytes32"
        }
      ],
      "stateMutability": "view",
      "type": "function"
    },
    {
      "inputs": [
        {
          "internalType": "uint256",
          "name": "round",
          "type": "uint256"
        },
        {
          "internalType": "bytes32",
          "name": "root",
          "type": "bytes32"
        }
      ],
      "name": "setRoot",
      "outputs": [],
      "stateMutability": "nonpayable",
      "type": "function"
    },
    {
      "inputs": [
        {
          "internalType": "bytes4",
          "name": "interfaceId",
          "type": "bytes4"
        }
      ],
      "name": "supportsInterface",
      "outputs": [
        {
          "internalType": "bool",
          "name": "",
          "type": "bool"
        }
      ],
      "stateMutability": "view",
      "type": "function"
    },
    {
      "inputs": [
        {
          "internalType": "address",
          "name": "to",
          "type": "address"
        },
        {
          "internalType": "uint256",
          "name": "amount",
          "type": "uint256"
        }
      ],
      "name": "sweep",
      "outputs": [],
      "stateMutability": "nonpayable",
      "type": "function"
    },
    {
      "inputs": [],
      "name": "token",
      "outputs": [
        {
          "internalType": "contract IERC20",
          "name": "",
          "type": "address"
        }
      ],
      "stateMutability": "view",
      "type": "function"
    }
  ],
  "bytecode": "0x60a060405234801561001057600080fd5b50604051610ded380380610ded83398101604081905261002f916101c2565b60017f9b779b17422d0df92223018b32b4d1fa46e071723d6817e2486d003becc55f00556001600160a01b0382161580159061007357506001600160a01b03811615155b6100af5760405162461bcd60e51b81526020600482015260096024820152683d32b9379030b2323960b91b604482015260640160405180910390fd5b6001600160a01b0382166080526100c76000826100fa565b506100f27fdd62196d137f0fb3f97e5040a3a03bbbbdf7666ca0204690b7c008f347ff43df826100fa565b5050506101f5565b6000828152602081815260408083206001600160a01b038516845290915281205460ff1661019c576000838152602081815260408083206001600160a01b03861684529091529020805460ff191660011790556101543390565b6001600160a01b0316826001600160a01b0316847f2f8788117e7eff1d82e926ec794901d17c78024a50270940304540a733656f0d60405160405180910390a45060016101a0565b5060005b92915050565b80516001600160a01b03811681146101bd57600080fd5b919050565b600080604083850312156101d557600080fd5b6101de836101a6565b91506101ec602084016101a6565b90509250929050565b608051610bcf61021e6000396000818161023601528181610526015261061d0152610bcf6000f3fe608060405234801561001057600080fd5b50600436106100ea5760003560e01c80638e5b953e1161008c578063c2b40ae411610066578063c2b40ae4146101eb578063d547741f1461020b578063f364c90c1461021e578063fc0c546a1461023157600080fd5b80638e5b953e146101a957806391d14854146101d0578063a217fddf146101e357600080fd5b80632f2ff15d116100c85780632f2ff15d1461015d57806336568abe146101705780635d4df3bf146101835780636ea056a91461019657600080fd5b806301ffc9a7146100ef578063048f06f214610117578063248a9ca31461012c575b600080fd5b6101026100fd3660046109e3565b610270565b60405190151581526020015b60405180910390f35b61012a610125366004610a0d565b6102a7565b005b61014f61013a366004610a2f565b60009081526020819052604090206001015490565b60405190815260200161010e565b61012a61016b366004610a64565b610323565b61012a61017e366004610a64565b61034e565b61012a610191366004610a90565b610386565b61012a6101a4366004610b32565b6105c6565b61014f7fdd62196d137f0fb3f97e5040a3a03bbbbdf7666ca0204690b7c008f347ff43df81565b6101026101de366004610a64565b61067f565b61014f600081565b61014f6101f9366004610a2f565b60016020526000908152604090205481565b61012a610219366004610a64565b6106a8565b61010261022c366004610a0d565b6106cd565b6102587f000000000000000000000000000000000000000000000000000000000000000081565b6040516001600160a01b03909116815260200161010e565b60006001600160e01b03198216637965db0b60e01b14806102a157506301ffc9a760e01b6001600160e01b03198316145b92915050565b7fdd62196d137f0fb3f97e5040a3a03bbbbdf7666ca0204690b7c008f347ff43df6102d1816106fd565b600083815260016020526040908190208390555183907f93e1161f70c14c1edcf89da3794a647515e2d6755fb5fa00a719cdbf89ab3b7f906103169085815260200190565b60405180910390a2505050565b60008281526020819052604090206001015461033e816106fd565b610348838361070a565b50505050565b6001600160a01b03811633146103775760405163334bd91960e11b815260040160405180910390fd5b610381828261079c565b505050565b61038e610807565b600086815260016020526040902054806103e05760405162461bcd60e51b815260206004820152600e60248201526d3937bab732103737ba1037b832b760911b60448201526064015b60405180910390fd5b6103ea87876106cd565b156104295760405162461bcd60e51b815260206004820152600f60248201526e185b1c9958591e4818db185a5b5959608a1b60448201526064016103d7565b60408051602081018890526bffffffffffffffffffffffff19606088901b1691810191909152605481018590526000906074016040516020818303038152906040528051906020012090506104b48484808060200260200160405190810160405280939291908181526020018383602002808284376000920191909152508692508591506108359050565b6104f05760405162461bcd60e51b815260206004820152600d60248201526c34b73b30b634b210383937b7b360991b60448201526064016103d7565b600088815260026020908152604080832060088b901c845290915290208054600160ff8a161b17905561054d6001600160a01b037f000000000000000000000000000000000000000000000000000000000000000016878761084b565b60408051888152602081018790526001600160a01b038816918a917fb94bf7f9302edf52a596286915a69b4b0685574cffdedd0712e3c62f2550f0ba910160405180910390a350506105be60017f9b779b17422d0df92223018b32b4d1fa46e071723d6817e2486d003becc55f0055565b505050505050565b60006105d1816106fd565b6001600160a01b0383166106105760405162461bcd60e51b81526004016103d7906020808252600490820152630746f3d360e41b604082015260600190565b6106446001600160a01b037f000000000000000000000000000000000000000000000000000000000000000016848461084b565b826001600160a01b03167fc36b5179cb9c303b200074996eab2b3473eac370fdd7eba3bec636fe351096968360405161031691815260200190565b6000918252602082815260408084206001600160a01b0393909316845291905290205460ff1690565b6000828152602081905260409020600101546106c3816106fd565b610348838361079c565b6000828152600260209081526040808320600885901c8452909152812054600160ff84161b1615155b9392505050565b6107078133610880565b50565b6000610716838361067f565b610794576000838152602081815260408083206001600160a01b03861684529091529020805460ff1916600117905561074c3390565b6001600160a01b0316826001600160a01b0316847f2f8788117e7eff1d82e926ec794901d17c78024a50270940304540a733656f0d60405160405180910390a45060016102a1565b5060006102a1565b60006107a8838361067f565b15610794576000838152602081815260408083206001600160a01b0386168085529252808320805460ff1916905551339286917ff6391f5c32d9c69d2a47ea670b442974b53935d1edc7fd64eb21e047a839171b9190a45060016102a1565b61080f6108bd565b60027f9b779b17422d0df92223018b32b4d1fa46e071723d6817e2486d003becc55f0055565b6000826108428584610901565b14949350505050565b610858838383600161094e565b61038157604051635274afe760e01b81526001600160a01b03841660048201526024016103d7565b61088a828261067f565b6108b95760405163e2517d3f60e01b81526001600160a01b0382166004820152602481018390526044016103d7565b5050565b7f9b779b17422d0df92223018b32b4d1fa46e071723d6817e2486d003becc55f00546002036108ff57604051633ee5aeb560e01b815260040160405180910390fd5b565b600081815b8451811015610946576109328286838151811061092557610925610b5c565b60200260200101516109b4565b91508061093e81610b72565b915050610906565b509392505050565b60405163a9059cbb60e01b60008181526001600160a01b038616600452602485905291602083604481808b5af1925060016000511483166109a857838315161561099b573d6000823e3d81fd5b6000873b113d1516831692505b60405250949350505050565b60008183106109d05760008281526020849052604090206106f6565b60008381526020839052604090206106f6565b6000602082840312156109f557600080fd5b81356001600160e01b0319811681146106f657600080fd5b60008060408385031215610a2057600080fd5b50508035926020909101359150565b600060208284031215610a4157600080fd5b5035919050565b80356001600160a01b0381168114610a5f57600080fd5b919050565b60008060408385031215610a7757600080fd5b82359150610a8760208401610a48565b90509250929050565b60008060008060008060a08789031215610aa957600080fd5b8635955060208701359450610ac060408801610a48565b935060608701359250608087013567ffffffffffffffff80821115610ae457600080fd5b818901915089601f830112610af857600080fd5b813581811115610b0757600080fd5b8a60208260051b8501011115610b1c57600080fd5b6020830194508093505050509295509295509295565b60008060408385031215610b4557600080fd5b610b4e83610a48565b946020939093013593505050565b634e487b7160e01b600052603260045260246000fd5b600060018201610b9257634e487b7160e01b600052601160045260246000fd5b506001019056fea2646970667358221220d84ed7aff4e1fb040a362f6fd779bb1654f9d3af8a3f3e511d5fcac02751eecc64736f6c63430008140033",
  "linkReferences": {},
  "deployedLinkReferences": {}
}