{
  "_format": "hh-sol-artifact-1",
  "contractName": "BDLStaking",
  "sourceName": "contracts/BDLStaking.sol",
  "abi": [
    {
      "inputs": [
        {
          "internalType": "address",
          "name": "stakeToken_",
          "type": "address"
        },
        {
          "internalType": "uint256",
          "name": "minStake_",
          "type": "uint256"
        },
        {
          "internalType": "uint256",
          "name": "lockDuration_",
          "type": "uint256"
        },
        {
          "internalType": "address",
          "name": "admin_",
          "type": "address"
        }
      ],
      "stateMutability": "nonpayable",
      "type": "constructor"
    },
    {
      "inputs": [],
      "name": "AccessControlBadConfirmation",
      "type": "error"
    },
    {
      "inputs": [
        {
          "internalType": "address",
          "name": "account",
          "type": "address"
        },
        {
          "internalType": "bytes32",
          "name": "neededRole",
          "type": "bytes32"
        }
      ],
      "name": "AccessControlUnauthorizedAccount",
      "type": "error"
    },
    {
      "inputs": [],
      "name": "EnforcedPause",
      "type": "error"
    },
    {
      "inputs": [],
      "name": "ExpectedPause",
      "type": "error"
    },
    {
      "inputs": [],
      "name": "ReentrancyGuardReentrantCall",
      "type": "error"
    },
    {
      "inputs": [
        {
          "internalType": "address",
          "name": "token",
          "type": "address"
        }
      ],
      "name": "SafeERC20FailedOperation",
      "type": "error"
    },
    {
      "anonymous": false,
      "inputs": [
        {
          "indexed": false,
          "internalType": "address",
          "name": "account",
          "type": "address"
        }
      ],
      "name": "Paused",
      "type": "event"
    },
    {
      "anonymous": false,
      "inputs": [
        {
          "indexed": true,
          "internalType": "bytes32",
          "name": "role",
          "type": "bytes32"
        },
        {
          "indexed": true,
          "internalType": "bytes32",
          "name": "previousAdminRole",
          "type": "bytes32"
        },
        {
          "indexed": true,
          "internalType": "bytes32",
          "name": "newAdminRole",
          "type": "bytes32"
        }
      ],
      "name": "RoleAdminChanged",
      "type": "event"
    },
    {
      "anonymous": false,
      "inputs": [
        {
          "indexed": true,
          "internalType": "bytes32",
          "name": "role",
          "type": "bytes32"
        },
        {
          "indexed": true,
          "internalType": "address",
          "name": "account",
          "type": "address"
        },
        {
          "indexed": true,
          "internalType": "address",
          "name": "sender",
          "type": "address"
        }
      ],
      "name": "RoleGranted",
      "type": "event"
    },
    {
      "anonymous": false,
      "inputs": [
        {
          "indexed": true,
          "internalType": "bytes32",
          "name": "role",
          "type": "bytes32"
        },
        {
          "indexed": true,
          "internalType": "address",
          "name": "account",
          "type": "address"
        },
        {
          "indexed": true,
          "internalType": "address",
          "name": "sender",
          "type": "address"
        }
      ],
      "name": "RoleRevoked",
      "type": "event"
    },
    {
      "anonymous": false,
      "inputs": [
        {
          "indexed": true,
          "internalType": "address",
          "name": "user",
          "type": "address"
        },
        {
          "indexed": false,
          "internalType": "uint256",
          "name": "amount",
          "type": "uint256"
        },
        {
          "indexed": false,
          "internalType": "uint256",
          "name": "userTotal",
          "type": "uint256"
        },
        {
          "indexed": false,
          "internalType": "uint256",
          "name": "cumulativeTotal",
          "type": "uint256"
        },
        {
          "indexed": false,
          "internalType": "uint64",
          "name": "unlockTime",
          "type": "uint64"
        },
        {
          "indexed": false,
          "internalType": "uint32",
          "name": "sequence",
          "type": "uint32"
        }
      ],
      "name": "Staked",
      "type": "event"
    },
    {
      "anonymous": false,
      "inputs": [
        {
          "indexed": false,
          "internalType": "address",
          "name": "account",
          "type": "address"
        }
      ],
      "name": "Unpaused",
      "type": "event"
    },
    {
      "anonymous": false,
      "inputs": [
        {
          "indexed": true,
          "internalType": "address",
          "name": "user",
          "type": "address"
        },
        {
          "indexed": false,
          "internalType": "uint256",
          "name": "amount",
          "type": "uint256"
        }
      ],
      "name": "Unstaked",
      "type": "event"
    },
    {
      "inputs": [],
      "name": "DEFAULT_ADMIN_ROLE",
      "outputs": [
        {
          "internalType": "bytes32",
          "name": "",
          "type": "bytes32"
        }
      ],
      "stateMutability": "view",
      "type": "function"
    },
    {
      "inputs": [],
      "name": "PAUSER_ROLE",
      "outputs": [
        {
          "internalType": "bytes32",
          "name": "",
          "type": "bytes32"
        }
      ],
      "stateMutability": "view",
      "type": "function"
    },
    {
      "inputs": [
        {
          "internalType": "bytes32",
          "name": "role",
          "type": "bytes32"
        }
      ],
      "name": "getRoleAdmin",
      "outputs": [
        {
          "internalType": "bytes32",
          "name": "",
          "type": "bytes32"
        }
      ],
      "stateMutability": "view",
      "type": "function"
    },
    {
      "inputs": [
        {
          "internalType": "address",
          "name": "user",
          "type": "address"
        }
      ],
      "name": "getStake",
      "outputs": [
        {
          "internalType": "uint256",
          "name": "amount",
          "type": "uint256"
        },
        {
          "internalType": "uint64",
          "name": "start",
          "type": "uint64"
        },
        {
          "internalType": "uint64",
          "name": "unlockTime",
          "type": "uint64"
        },
        {
          "internalType": "uint32",
          "name": "sequence",
          "type": "uint32"
        }
      ],
      "stateMutability": "view",
      "type": "function"
    },
    {
      "inputs": [
        {
          "internalType": "bytes32",
          "name": "role",
          "type": "bytes32"
        },
        {
          "internalType": "address",
          "name": "account",
          "type": "address"
        }
      ],
      "name": "grantRole",
      "outputs": [],
      "stateMutability": "nonpayable",
      "type": "function"
    },
    {
      "inputs": [
        {
          "internalType": "bytes32",
          "name": "role",
          "type": "bytes32"
        },
        {
          "internalType": "address",
          "name": "account",
          "type": "address"
        }
      ],
      "name": "hasRole",
      "outputs": [
        {
          "internalType": "bool",
          "name": "",
          "type": "bool"
        }
      ],
      "stateMutability": "view",
      "type": "function"
    },
    {
      "inputs": [
        {
          "internalType": "address",
          "name": "user",
          "type": "address"
        }
      ],
      "name": "isEligible",
      "outputs": [
        {
          "internalType": "bool",
          "name": "",
          "type": "bool"
        }
      ],
      "stateMutability": "view",
      "type": "function"
    },
    {
      "inputs": [
        {
          "internalType": "address",
          "name": "user",
          "type": "address"
        }
      ],
      "name": "isLocked",
      "outputs": [
        {
          "internalType": "bool",
          "name": "",
          "type": "bool"
        }
      ],
      "stateMutability": "view",
      "type": "function"
    },
    {
      "inputs": [],
      "name": "lockDuration",
      "outputs": [
        {
          "internalType": "uint256",
          "name": "",
          "type": "uint256"
        }
      ],
      "stateMutability": "view",
      "type": "function"
    },
    {
      "inputs": [],
      "name": "minStake",
      "outputs": [
        {
          "internalType": "uint256",
          "name": "",
          "type": "uint256"
        }
      ],
      "stateMutability": "view",
      "type": "function"
    },
    {
      "inputs": [],
      "name": "pause",
      "outputs": [],
      "stateMutability": "nonpayable",
      "type": "function"
    },
    {
      "inputs": [],
      "name": "paused",
      "outputs": [
        {
          "internalType": "bool",
          "name": "",
          "type": "bool"
        }
      ],
      "stateMutability": "view",
      "type": "function"
    },
    {
      "inputs": [
        {
          "internalType": "address",
          "name": "user",
          "type": "address"
        }
      ],
      "name": "remainingLock",
      "outputs": [
        {
          "internalType": "uint256",
          "name": "",
          "type": "uint256"
        }
      ],
      "stateMutability": "view",
      "type": "function"
    },
    {
      "inputs": [
        {
          "internalType": "bytes32",
          "name": "role",
          "type": "bytes32"
        },
        {
          "internalType": "address",
          "name": "callerConfirmation",
          "type": "address"
        }
      ],
      "name": "renounceRole",
      "outputs": [],
      "stateMutability": "nonpayable",
      "type": "function"
    },
    {
      "inputs": [
        {
          "internalType": "bytes32",
          "name": "role",
          "type": "bytes32"
        },
        {
          "internalType": "address",
          "name": "account",
          "type": "address"
        }
      ],
      "name": "revokeRole",
      "outputs": [],
      "stateMutability": "nonpayable",
      "type": "function"
    },
    {
      "inputs": [
        {
          "internalType": "uint256",
          "name": "amount",
          "type": "uint256"
        }
      ],
      "name": "stake",
      "outputs": [],
      "stateMutability": "nonpayable",
      "type": "function"
    },
    {
      "inputs": [],
      "name": "stakeToken",
      "outputs": [
        {
          "internalType": "contract IERC20",
          "name": "",
          "type": "address"
        }
      ],
      "stateMutability": "view",
      "type": "function"
    },
    {
      "inputs": [
        {
          "internalType": "address",
          "name": "user",
          "type": "address"
        }
      ],
      "name": "stakedOf",
      "outputs": [
        {
          "internalType": "uint256",
          "name": "",
          "type": "uint256"
        }
      ],
      "stateMutability": "view",
      "type": "function"
    },
    {
      "inputs": [],
      "name": "stakerCount",
      "outputs": [
        {
          "internalType": "uint256",
          "name": "",
          "type": "uint256"
        }
      ],
      "stateMutability": "view",
      "type": "function"
    },
    {
      "inputs": [
        {
          "internalType": "uint256",
          "name": "",
          "type": "uint256"
        }
      ],
      "name": "stakers",
      "outputs": [
        {
          "internalType": "address",
          "name": "",
          "type": "address"
        }
      ],
      "stateMutability": "view",
      "type": "function"
    },
    {
      "inputs": [
        {
          "internalType": "address",
          "name": "",
          "type": "address"
        }
      ],
      "name": "stakes",
      "outputs": [
        {
          "internalType": "uint256",
          "name": "amount",
          "type": "uint256"
        },
        {
          "internalType": "uint64",
          "name": "start",
          "type": "uint64"
        },
        {
          "internalType": "uint64",
          "name": "unlockTime",
          "type": "uint64"
        },
        {
          "internalType": "uint32",
          "name": "sequence",
          "type": "uint32"
        }
      ],
      "stateMutability": "view",
      "type": "function"
    },
    {
      "inputs": [
        {
          "internalType": "bytes4",
          "name": "interfaceId",
          "type": "bytes4"
        }
      ],
      "name": "supportsInterface",
      "outputs": [
        {
          "internalType": "bool",
          "name": "",
          "type": "bool"
        }
      ],
      "stateMutability": "view",
      "type": "function"
    },
    {
      "inputs": [],
      "name": "totalStaked",
      "outputs": [
        {
          "internalType": "uint256",
          "name": "",
          "type": "uint256"
        }
      ],
      "stateMutability": "view",
      "type": "function"
    },
    {
      "inputs": [
        {
          "internalType": "address",
          "name": "user",
          "type": "address"
        }
      ],
      "name": "unlockTimeOf",
      "outputs": [
        {
          "internalType": "uint64",
          "name": "",
          "type": "uint64"
        }
      ],
      "stateMutability": "view",
      "type": "function"
    },
    {
      "inputs": [],
      "name": "unpause",
      "outputs": [],
      "stateMutability": "nonpayable",
      "type": "function"
    },
    {
      "inputs": [],
      "name": "unstake",
      "outputs": [],
      "stateMutability": "nonpayable",
      "type": "function"
    }
  ],
  "bytecode": "0x60e06040523480156200001157600080fd5b50604051620013fa380380620013fa83398101604081905262000034916200021a565b60017f9b779b17422d0df92223018b32b4d1fa46e071723d6817e2486d003becc55f00556001600160a01b038416158015906200007957506001600160a01b03811615155b620000b75760405162461bcd60e51b81526020600482015260096024820152683d32b9379030b2323960b91b60448201526064015b60405180910390fd5b60008211620000f25760405162461bcd60e51b815260206004820152600660248201526506c6f636b3d360d41b6044820152606401620000ae565b6001600160a01b03841660805260a083905260c0829052620001166000826200014e565b50620001437f65d7a28e3265b37a6474929f336521b332c1681b933f6cb9f3376673440d862a826200014e565b505050505062000265565b6000828152602081815260408083206001600160a01b038516845290915281205460ff16620001f3576000838152602081815260408083206001600160a01b03861684529091529020805460ff19166001179055620001aa3390565b6001600160a01b0316826001600160a01b0316847f2f8788117e7eff1d82e926ec794901d17c78024a50270940304540a733656f0d60405160405180910390a4506001620001f7565b5060005b92915050565b80516001600160a01b03811681146200021557600080fd5b919050565b600080600080608085870312156200023157600080fd5b6200023c85620001fd565b935060208501519250604085015191506200025a60608601620001fd565b905092959194509250565b60805160a05160c05161113b620002bf600039600081816101c00152610b010152600081816102c901526103cc01526000818161035f015281816106270152818161089e01528181610920015261096a015261113b6000f3fe608060405234801561001057600080fd5b506004361061018e5760003560e01c806366e305fd116100de578063a217fddf11610097578063d547741f11610071578063d547741f146104c2578063dff69787146104d5578063e63ab1e9146104dd578063fd5e6dd11461050457600080fd5b8063a217fddf1461047e578063a694fc3a14610486578063af500ba31461049957600080fd5b806366e305fd146103a45780637a766460146103f0578063817b1cd2146104475780638456cb59146104505780639139e1931461045857806391d148541461046b57600080fd5b806336568abe1161014b578063469a694711610125578063469a6947146102f35780634a4fbeec1461034757806351ed6a301461035a5780635c975abb1461039957600080fd5b806336568abe146102b1578063375b3c0a146102c45780633f4ba83a146102eb57600080fd5b806301ffc9a71461019357806304554443146101bb57806316934fc4146101f0578063248a9ca3146102715780632def6620146102945780632f2ff15d1461029e575b600080fd5b6101a66101a1366004610fea565b610517565b60405190151581526020015b60405180910390f35b6101e27f000000000000000000000000000000000000000000000000000000000000000081565b6040519081526020016101b2565b61023b6101fe366004611030565b600260205260009081526040902080546001909101546001600160401b0380821691600160401b810490911690600160801b900463ffffffff1684565b6040516101b294939291909384526001600160401b0392831660208501529116604083015263ffffffff16606082015260800190565b6101e261027f36600461104b565b60009081526020819052604090206001015490565b61029c61054e565b005b61029c6102ac366004611064565b61069e565b61029c6102bf366004611064565b6106c9565b6101e27f000000000000000000000000000000000000000000000000000000000000000081565b61029c610701565b61032f610301366004611030565b6001600160a01b0316600090815260026020526040902060010154600160401b90046001600160401b031690565b6040516001600160401b0390911681526020016101b2565b6101a6610355366004611030565b610736565b6103817f000000000000000000000000000000000000000000000000000000000000000081565b6040516001600160a01b0390911681526020016101b2565b60015460ff166101a6565b6101a66103b2366004611030565b6001600160a01b03166000908152600260205260409020547f0000000000000000000000000000000000000000000000000000000000000000111590565b61023b6103fe366004611030565b6001600160a01b03166000908152600260205260409020805460019091015490916001600160401b0380831692600160401b810490911691600160801b90910463ffffffff1690565b6101e260045481565b61029c610778565b6101e2610466366004611030565b6107aa565b6101a6610479366004611064565b610812565b6101e2600081565b61029c61049436600461104b565b61083b565b6101e26104a7366004611030565b6001600160a01b031660009081526002602052604090205490565b61029c6104d0366004611064565b610bf4565b6003546101e2565b6101e27f65d7a28e3265b37a6474929f336521b332c1681b933f6cb9f3376673440d862a81565b61038161051236600461104b565b610c19565b60006001600160e01b03198216637965db0b60e01b148061054857506301ffc9a760e01b6001600160e01b03198316145b92915050565b610556610c43565b3360009081526002602052604090208054806105aa5760405162461bcd60e51b815260206004820152600e60248201526d1b9bdd1a1a5b99c81cdd185ad95960921b60448201526064015b60405180910390fd5b6001820154600160401b90046001600160401b03164210156105fd5760405162461bcd60e51b815260206004820152600c60248201526b1cdd1a5b1b081b1bd8dad95960a21b60448201526064016105a1565b6000808355600480548392906106149084906110a6565b9091555061064e90506001600160a01b037f0000000000000000000000000000000000000000000000000000000000000000163383610c5f565b60405181815233907f0f5bb82176feb1b5e747e28471aa92156a04d9f3ab9f45f28e2d704232b93f759060200160405180910390a2505061069c60016000805160206110e683398151915255565b565b6000828152602081905260409020600101546106b981610c94565b6106c38383610c9e565b50505050565b6001600160a01b03811633146106f25760405163334bd91960e11b815260040160405180910390fd5b6106fc8282610d30565b505050565b7f65d7a28e3265b37a6474929f336521b332c1681b933f6cb9f3376673440d862a61072b81610c94565b610733610d9b565b50565b6001600160a01b038116600090815260026020526040812080541580159061077157506001810154600160401b90046001600160401b031642105b9392505050565b7f65d7a28e3265b37a6474929f336521b332c1681b933f6cb9f3376673440d862a6107a281610c94565b610733610ded565b6001600160a01b0381166000908152600260205260408120805415806107e457506001810154600160401b90046001600160401b03164210155b156107f25750600092915050565b6001810154610771904290600160401b90046001600160401b03166110a6565b6000918252602082815260408084206001600160a01b0393909316845291905290205460ff1690565b610843610c43565b61084b610e28565b600081116108865760405162461bcd60e51b81526020600482015260086024820152670616d6f756e743d360c41b60448201526064016105a1565b6040516370a0823160e01b81523060048201526000907f00000000000000000000000000000000000000000000000000000000000000006001600160a01b0316906370a0823190602401602060405180830381865afa1580156108ed573d6000803e3d6000fd5b505050506040513d601f19601f8201168201806040525081019061091191906110b9565b90506109486001600160a01b037f000000000000000000000000000000000000000000000000000000000000000016333085610e4c565b6040516370a0823160e01b815230600482015260009082906001600160a01b037f000000000000000000000000000000000000000000000000000000000000000016906370a0823190602401602060405180830381865afa1580156109b1573d6000803e3d6000fd5b505050506040513d601f19601f820116820180604052508101906109d591906110b9565b6109df91906110a6565b905060008111610a265760405162461bcd60e51b81526020600482015260126024820152711b9bc81d1bdad95b9cc81c9958d95a5d995960721b60448201526064016105a1565b33600090815260026020526040812060018101549091600160801b90910463ffffffff169003610ae257600380546001818101835560008390527fc2575a0e9e593c00f959f8c92f12db2869c3395a3b0502d05e2516446f71f85b90910180546001600160a01b03191633179055905490820180546001600160401b03421667ffffffffffffffff1963ffffffff909416600160801b029390931673ffffffff0000000000000000ffffffffffffffff19909116179190911790555b81816000016000828254610af691906110d2565b90915550610b2690507f0000000000000000000000000000000000000000000000000000000000000000426110d2565b8160010160086101000a8154816001600160401b0302191690836001600160401b031602179055508160046000828254610b6091906110d2565b909155505080546004546001830154604080518681526020810194909452830191909152600160401b81046001600160401b03166060830152600160801b900463ffffffff16608082015233907fd487ca45f3dfe8509173cf1cd6a4bb4879a2f37e6cc718392fcef56185e91a5b9060a00160405180910390a250505061073360016000805160206110e683398151915255565b600082815260208190526040902060010154610c0f81610c94565b6106c38383610d30565b60038181548110610c2957600080fd5b6000918252602090912001546001600160a01b0316905081565b610c4b610e82565b60026000805160206110e683398151915255565b610c6c8383836001610eb2565b6106fc57604051635274afe760e01b81526001600160a01b03841660048201526024016105a1565b6107338133610f18565b6000610caa8383610812565b610d28576000838152602081815260408083206001600160a01b03861684529091529020805460ff19166001179055610ce03390565b6001600160a01b0316826001600160a01b0316847f2f8788117e7eff1d82e926ec794901d17c78024a50270940304540a733656f0d60405160405180910390a4506001610548565b506000610548565b6000610d3c8383610812565b15610d28576000838152602081815260408083206001600160a01b0386168085529252808320805460ff1916905551339286917ff6391f5c32d9c69d2a47ea670b442974b53935d1edc7fd64eb21e047a839171b9190a4506001610548565b610da3610f55565b6001805460ff191690557f5db9ee0a495bf2e6ff9c91a7834c1ba4fdd244a5e8aa4e537bd38aeae4b073aa335b6040516001600160a01b03909116815260200160405180910390a1565b610df5610e28565b6001805460ff1916811790557f62e78cea01bee320cd4e420270b5ea74000d11b0c9f74754ebdbfc544b05a25833610dd0565b60015460ff161561069c5760405163d93c066560e01b815260040160405180910390fd5b610e5a848484846001610f78565b6106c357604051635274afe760e01b81526001600160a01b03851660048201526024016105a1565b6000805160206110e68339815191525460020361069c57604051633ee5aeb560e01b815260040160405180910390fd5b60405163a9059cbb60e01b60008181526001600160a01b038616600452602485905291602083604481808b5af192506001600051148316610f0c578383151615610eff573d6000823e3d81fd5b6000873b113d1516831692505b60405250949350505050565b610f228282610812565b610f515760405163e2517d3f60e01b81526001600160a01b0382166004820152602481018390526044016105a1565b5050565b60015460ff1661069c57604051638dfc202b60e01b815260040160405180910390fd5b6040516323b872dd60e01b60008181526001600160a01b038781166004528616602452604485905291602083606481808c5af192506001600051148316610fd8578383151615610fcb573d6000823e3d81fd5b6000883b113d1516831692505b60405250600060605295945050505050565b600060208284031215610ffc57600080fd5b81356001600160e01b03198116811461077157600080fd5b80356001600160a01b038116811461102b57600080fd5b919050565b60006020828403121561104257600080fd5b61077182611014565b60006020828403121561105d57600080fd5b5035919050565b6000806040838503121561107757600080fd5b8235915061108760208401611014565b90509250929050565b634e487b7160e01b600052601160045260246000fd5b8181038181111561054857610548611090565b6000602082840312156110cb57600080fd5b5051919050565b808201808211156105485761054861109056fe9b779b17422d0df92223018b32b4d1fa46e071723d6817e2486d003becc55f00a26469706673582212200670147fcb80f875800b08421c3004d7adee3f04f201e683a2b18670ab33d75764736f6c63430008140033",
  "linkReferences": {},
  "deployedLinkReferences": {}
}