{
  "_format": "hh-sol-artifact-1",
  "contractName": "NexToken",
  "sourceName": "contracts/NexToken.sol",
  "abi": [
    {
      "inputs": [
        {
          "internalType": "string",
          "name": "name_",
          "type": "string"
        },
        {
          "internalType": "string",
          "name": "symbol_",
          "type": "string"
        },
        {
          "internalType": "uint256",
          "name": "initialSupply",
          "type": "uint256"
        }
      ],
      "stateMutability": "nonpayable",
      "type": "constructor"
    },
    {
      "inputs": [],
      "name": "AccessControlBadConfirmation",
      "type": "error"
    },
    {
      "inputs": [
        {
          "internalType": "address",
          "name": "account",
          "type": "address"
        },
        {
          "internalType": "bytes32",
          "name": "neededRole",
          "type": "bytes32"
        }
      ],
      "name": "AccessControlUnauthorizedAccount",
      "type": "error"
    },
    {
      "inputs": [
        {
          "internalType": "address",
          "name": "spender",
          "type": "address"
        },
        {
          "internalType": "uint256",
          "name": "allowance",
          "type": "uint256"
        },
        {
          "internalType": "uint256",
          "name": "needed",
          "type": "uint256"
        }
      ],
      "name": "ERC20InsufficientAllowance",
      "type": "error"
    },
    {
      "inputs": [
        {
          "internalType": "address",
          "name": "sender",
          "type": "address"
        },
        {
          "internalType": "uint256",
          "name": "balance",
          "type": "uint256"
        },
        {
          "internalType": "uint256",
          "name": "needed",
          "type": "uint256"
        }
      ],
      "name": "ERC20InsufficientBalance",
      "type": "error"
    },
    {
      "inputs": [
        {
          "internalType": "address",
          "name": "approver",
          "type": "address"
        }
      ],
      "name": "ERC20InvalidApprover",
      "type": "error"
    },
    {
      "inputs": [
        {
          "internalType": "address",
          "name": "receiver",
          "type": "address"
        }
      ],
      "name": "ERC20InvalidReceiver",
      "type": "error"
    },
    {
      "inputs": [
        {
          "internalType": "address",
          "name": "sender",
          "type": "address"
        }
      ],
      "name": "ERC20InvalidSender",
      "type": "error"
    },
    {
      "inputs": [
        {
          "internalType": "address",
          "name": "spender",
          "type": "address"
        }
      ],
      "name": "ERC20InvalidSpender",
      "type": "error"
    },
    {
      "inputs": [],
      "name": "EnforcedPause",
      "type": "error"
    },
    {
      "inputs": [],
      "name": "ExpectedPause",
      "type": "error"
    },
    {
      "inputs": [
        {
          "internalType": "address",
          "name": "owner",
          "type": "address"
        }
      ],
      "name": "OwnableInvalidOwner",
      "type": "error"
    },
    {
      "inputs": [
        {
          "internalType": "address",
          "name": "account",
          "type": "address"
        }
      ],
      "name": "OwnableUnauthorizedAccount",
      "type": "error"
    },
    {
      "anonymous": false,
      "inputs": [
        {
          "indexed": true,
          "internalType": "address",
          "name": "owner",
          "type": "address"
        },
        {
          "indexed": true,
          "internalType": "address",
          "name": "spender",
          "type": "address"
        },
        {
          "indexed": false,
          "internalType": "uint256",
          "name": "value",
          "type": "uint256"
        }
      ],
      "name": "Approval",
      "type": "event"
    },
    {
      "anonymous": false,
      "inputs": [
        {
          "indexed": true,
          "internalType": "address",
          "name": "previousOwner",
          "type": "address"
        },
        {
          "indexed": true,
          "internalType": "address",
          "name": "newOwner",
          "type": "address"
        }
      ],
      "name": "OwnershipTransferred",
      "type": "event"
    },
    {
      "anonymous": false,
      "inputs": [
        {
          "indexed": false,
          "internalType": "address",
          "name": "account",
          "type": "address"
        }
      ],
      "name": "Paused",
      "type": "event"
    },
    {
      "anonymous": false,
      "inputs": [
        {
          "indexed": true,
          "internalType": "bytes32",
          "name": "role",
          "type": "bytes32"
        },
        {
          "indexed": true,
          "internalType": "bytes32",
          "name": "previousAdminRole",
          "type": "bytes32"
        },
        {
          "indexed": true,
          "internalType": "bytes32",
          "name": "newAdminRole",
          "type": "bytes32"
        }
      ],
      "name": "RoleAdminChanged",
      "type": "event"
    },
    {
      "anonymous": false,
      "inputs": [
        {
          "indexed": true,
          "internalType": "bytes32",
          "name": "role",
          "type": "bytes32"
        },
        {
          "indexed": true,
          "internalType": "address",
          "name": "account",
          "type": "address"
        },
        {
          "indexed": true,
          "internalType": "address",
          "name": "sender",
          "type": "address"
        }
      ],
      "name": "RoleGranted",
      "type": "event"
    },
    {
      "anonymous": false,
      "inputs": [
        {
          "indexed": true,
          "internalType": "bytes32",
          "name": "role",
          "type": "bytes32"
        },
        {
          "indexed": true,
          "internalType": "address",
          "name": "account",
          "type": "address"
        },
        {
          "indexed": true,
          "internalType": "address",
          "name": "sender",
          "type": "address"
        }
      ],
      "name": "RoleRevoked",
      "type": "event"
    },
    {
      "anonymous": false,
      "inputs": [
        {
          "indexed": true,
          "internalType": "address",
          "name": "from",
          "type": "address"
        },
        {
          "indexed": true,
          "internalType": "address",
          "name": "to",
          "type": "address"
        },
        {
          "indexed": false,
          "internalType": "uint256",
          "name": "value",
          "type": "uint256"
        }
      ],
      "name": "Transfer",
      "type": "event"
    },
    {
      "anonymous": false,
      "inputs": [
        {
          "indexed": false,
          "internalType": "address",
          "name": "account",
          "type": "address"
        }
      ],
      "name": "Unpaused",
      "type": "event"
    },
    {
      "inputs": [],
      "name": "DEFAULT_ADMIN_ROLE",
      "outputs": [
        {
          "internalType": "bytes32",
          "name": "",
          "type": "bytes32"
        }
      ],
      "stateMutability": "view",
      "type": "function"
    },
    {
      "inputs": [],
      "name": "MINTER_ROLE",
      "outputs": [
        {
          "internalType": "bytes32",
          "name": "",
          "type": "bytes32"
        }
      ],
      "stateMutability": "view",
      "type": "function"
    },
    {
      "inputs": [],
      "name": "PAUSER_ROLE",
      "outputs": [
        {
          "internalType": "bytes32",
          "name": "",
          "type": "bytes32"
        }
      ],
      "stateMutability": "view",
      "type": "function"
    },
    {
      "inputs": [
        {
          "internalType": "address",
          "name": "owner",
          "type": "address"
        },
        {
          "internalType": "address",
          "name": "spender",
          "type": "address"
        }
      ],
      "name": "allowance",
      "outputs": [
        {
          "internalType": "uint256",
          "name": "",
          "type": "uint256"
        }
      ],
      "stateMutability": "view",
      "type": "function"
    },
    {
      "inputs": [
        {
          "internalType": "address",
          "name": "spender",
          "type": "address"
        },
        {
          "internalType": "uint256",
          "name": "value",
          "type": "uint256"
        }
      ],
      "name": "approve",
      "outputs": [
        {
          "internalType": "bool",
          "name": "",
          "type": "bool"
        }
      ],
      "stateMutability": "nonpayable",
      "type": "function"
    },
    {
      "inputs": [
        {
          "internalType": "address",
          "name": "account",
          "type": "address"
        }
      ],
      "name": "balanceOf",
      "outputs": [
        {
          "internalType": "uint256",
          "name": "",
          "type": "uint256"
        }
      ],
      "stateMutability": "view",
      "type": "function"
    },
    {
      "inputs": [
        {
          "internalType": "uint256",
          "name": "value",
          "type": "uint256"
        }
      ],
      "name": "burn",
      "outputs": [],
      "stateMutability": "nonpayable",
      "type": "function"
    },
    {
      "inputs": [
        {
          "internalType": "address",
          "name": "account",
          "type": "address"
        },
        {
          "internalType": "uint256",
          "name": "value",
          "type": "uint256"
        }
      ],
      "name": "burnFrom",
      "outputs": [],
      "stateMutability": "nonpayable",
      "type": "function"
    },
    {
      "inputs": [],
      "name": "decimals",
      "outputs": [
        {
          "internalType": "uint8",
          "name": "",
          "type": "uint8"
        }
      ],
      "stateMutability": "view",
      "type": "function"
    },
    {
      "inputs": [
        {
          "internalType": "bytes32",
          "name": "role",
          "type": "bytes32"
        }
      ],
      "name": "getRoleAdmin",
      "outputs": [
        {
          "internalType": "bytes32",
          "name": "",
          "type": "bytes32"
        }
      ],
      "stateMutability": "view",
      "type": "function"
    },
    {
      "inputs": [
        {
          "internalType": "bytes32",
          "name": "role",
          "type": "bytes32"
        },
        {
          "internalType": "address",
          "name": "account",
          "type": "address"
        }
      ],
      "name": "grantRole",
      "outputs": [],
      "stateMutability": "nonpayable",
      "type": "function"
    },
    {
      "inputs": [
        {
          "internalType": "bytes32",
          "name": "role",
          "type": "bytes32"
        },
        {
          "internalType": "address",
          "name": "account",
          "type": "address"
        }
      ],
      "name": "hasRole",
      "outputs": [
        {
          "internalType": "bool",
          "name": "",
          "type": "bool"
        }
      ],
      "stateMutability": "view",
      "type": "function"
    },
    {
      "inputs": [
        {
          "internalType": "address",
          "name": "to",
          "type": "address"
        },
        {
          "internalType": "uint256",
          "name": "amount",
          "type": "uint256"
        }
      ],
      "name": "mint",
      "outputs": [],
      "stateMutability": "nonpayable",
      "type": "function"
    },
    {
      "inputs": [],
      "name": "name",
      "outputs": [
        {
          "internalType": "string",
          "name": "",
          "type": "string"
        }
      ],
      "stateMutability": "view",
      "type": "function"
    },
    {
      "inputs": [],
      "name": "owner",
      "outputs": [
        {
          "internalType": "address",
          "name": "",
          "type": "address"
        }
      ],
      "stateMutability": "view",
      "type": "function"
    },
    {
      "inputs": [],
      "name": "pause",
      "outputs": [],
      "stateMutability": "nonpayable",
      "type": "function"
    },
    {
      "inputs": [],
      "name": "paused",
      "outputs": [
        {
          "internalType": "bool",
          "name": "",
          "type": "bool"
        }
      ],
      "stateMutability": "view",
      "type": "function"
    },
    {
      "inputs": [],
      "name": "renounceOwnership",
      "outputs": [],
      "stateMutability": "nonpayable",
      "type": "function"
    },
    {
      "inputs": [
        {
          "internalType": "bytes32",
          "name": "role",
          "type": "bytes32"
        },
        {
          "internalType": "address",
          "name": "callerConfirmation",
          "type": "address"
        }
      ],
      "name": "renounceRole",
      "outputs": [],
      "stateMutability": "nonpayable",
      "type": "function"
    },
    {
      "inputs": [
        {
          "internalType": "bytes32",
          "name": "role",
          "type": "bytes32"
        },
        {
          "internalType": "address",
          "name": "account",
          "type": "address"
        }
      ],
      "name": "revokeRole",
      "outputs": [],
      "stateMutability": "nonpayable",
      "type": "function"
    },
    {
      "inputs": [
        {
          "internalType": "bytes4",
          "name": "interfaceId",
          "type": "bytes4"
        }
      ],
      "name": "supportsInterface",
      "outputs": [
        {
          "internalType": "bool",
          "name": "",
          "type": "bool"
        }
      ],
      "stateMutability": "view",
      "type": "function"
    },
    {
      "inputs": [],
      "name": "symbol",
      "outputs": [
        {
          "internalType": "string",
          "name": "",
          "type": "string"
        }
      ],
      "stateMutability": "view",
      "type": "function"
    },
    {
      "inputs": [],
      "name": "totalSupply",
      "outputs": [
        {
          "internalType": "uint256",
          "name": "",
          "type": "uint256"
        }
      ],
      "stateMutability": "view",
      "type": "function"
    },
    {
      "inputs": [
        {
          "internalType": "address",
          "name": "to",
          "type": "address"
        },
        {
          "internalType": "uint256",
          "name": "value",
          "type": "uint256"
        }
      ],
      "name": "transfer",
      "outputs": [
        {
          "internalType": "bool",
          "name": "",
          "type": "bool"
        }
      ],
      "stateMutability": "nonpayable",
      "type": "function"
    },
    {
      "inputs": [
        {
          "internalType": "address",
          "name": "from",
          "type": "address"
        },
        {
          "internalType": "address",
          "name": "to",
          "type": "address"
        },
        {
          "internalType": "uint256",
          "name": "value",
          "type": "uint256"
        }
      ],
      "name": "transferFrom",
      "outputs": [
        {
          "internalType": "bool",
          "name": "",
          "type": "bool"
        }
      ],
      "stateMutability": "nonpayable",
      "type": "function"
    },
    {
      "inputs": [
        {
          "internalType": "address",
          "name": "newOwner",
          "type": "address"
        }
      ],
      "name": "transferOwnership",
      "outputs": [],
      "stateMutability": "nonpayable",
      "type": "function"
    },
    {
      "inputs": [],
      "name": "unpause",
      "outputs": [],
      "stateMutability": "nonpayable",
      "type": "function"
    }
  ],
  "bytecode": "0x60806040523480156200001157600080fd5b506040516200173e3803806200173e8339810160408190526200003491620004bc565b3383836003620000458382620005bd565b506004620000548282620005bd565b5050506001600160a01b0381166200008757604051631e4fbdf760e01b8152600060048201526024015b60405180910390fd5b620000928162000129565b50620000a060003362000183565b50620000cd7f9f2df0fed2c77648de5860a4cc508cd0818c85b8b8a1ab4ceeef8d981c8956a63362000183565b50620000fa7f65d7a28e3265b37a6474929f336521b332c1681b933f6cb9f3376673440d862a3362000183565b5062000120336200010e6012600a6200079c565b6200011a9084620007b4565b62000236565b505050620007e4565b600580546001600160a01b03838116610100818102610100600160a81b031985161790945560405193909204169182907f8be0079c531659141344cd1fd0a4f28419497f9722a3daafe3b4186f6b6457e090600090a35050565b60008281526006602090815260408083206001600160a01b038516845290915281205460ff166200022c5760008381526006602090815260408083206001600160a01b03861684529091529020805460ff19166001179055620001e33390565b6001600160a01b0316826001600160a01b0316847f2f8788117e7eff1d82e926ec794901d17c78024a50270940304540a733656f0d60405160405180910390a450600162000230565b5060005b92915050565b6001600160a01b038216620002625760405163ec442f0560e01b8152600060048201526024016200007e565b620002706000838362000274565b5050565b6200028183838362000286565b505050565b620002906200029d565b62000281838383620002c4565b60055460ff1615620002c25760405163d93c066560e01b815260040160405180910390fd5b565b6001600160a01b038316620002f3578060026000828254620002e79190620007ce565b90915550620003679050565b6001600160a01b03831660009081526020819052604090205481811015620003485760405163391434e360e21b81526001600160a01b038516600482015260248101829052604481018390526064016200007e565b6001600160a01b03841660009081526020819052604090209082900390555b6001600160a01b0382166200038557600280548290039055620003a4565b6001600160a01b03821660009081526020819052604090208054820190555b816001600160a01b0316836001600160a01b03167fddf252ad1be2c89b69c2b068fc378daa952ba7f163c4a11628f55a4df523b3ef83604051620003ea91815260200190565b60405180910390a3505050565b634e487b7160e01b600052604160045260246000fd5b600082601f8301126200041f57600080fd5b81516001600160401b03808211156200043c576200043c620003f7565b604051601f8301601f19908116603f01168101908282118183101715620004675762000467620003f7565b816040528381526020925086838588010111156200048457600080fd5b600091505b83821015620004a8578582018301518183018401529082019062000489565b600093810190920192909252949350505050565b600080600060608486031215620004d257600080fd5b83516001600160401b0380821115620004ea57600080fd5b620004f8878388016200040d565b945060208601519150808211156200050f57600080fd5b506200051e868287016200040d565b925050604084015190509250925092565b600181811c908216806200054457607f821691505b6020821081036200056557634e487b7160e01b600052602260045260246000fd5b50919050565b601f8211156200028157600081815260208120601f850160051c81016020861015620005945750805b601f850160051c820191505b81811015620005b557828155600101620005a0565b505050505050565b81516001600160401b03811115620005d957620005d9620003f7565b620005f181620005ea84546200052f565b846200056b565b602080601f831160018114620006295760008415620006105750858301515b600019600386901b1c1916600185901b178555620005b5565b600085815260208120601f198616915b828110156200065a5788860151825594840194600190910190840162000639565b5085821015620006795787850151600019600388901b60f8161c191681555b5050505050600190811b01905550565b634e487b7160e01b600052601160045260246000fd5b600181815b80851115620006e0578160001904821115620006c457620006c462000689565b80851615620006d257918102915b93841c9390800290620006a4565b509250929050565b600082620006f95750600162000230565b81620007085750600062000230565b81600181146200072157600281146200072c576200074c565b600191505062000230565b60ff84111562000740576200074062000689565b50506001821b62000230565b5060208310610133831016604e8410600b841016171562000771575081810a62000230565b6200077d83836200069f565b806000190482111562000794576200079462000689565b029392505050565b6000620007ad60ff841683620006e8565b9392505050565b808202811582820484141762000230576200023062000689565b8082018082111562000230576200023062000689565b610f4a80620007f46000396000f3fe608060405234801561001057600080fd5b50600436106101a95760003560e01c806370a08231116100f9578063a217fddf11610097578063d547741f11610071578063d547741f14610388578063dd62ed3e1461039b578063e63ab1e9146103d4578063f2fde38b146103fb57600080fd5b8063a217fddf14610346578063a9059cbb1461034e578063d53913931461036157600080fd5b80638456cb59116100d35780638456cb59146102fa5780638da5cb5b1461030257806391d148541461032b57806395d89b411461033e57600080fd5b806370a08231146102b6578063715018a6146102df57806379cc6790146102e757600080fd5b80632f2ff15d116101665780633f4ba83a116101405780633f4ba83a1461027d57806340c10f191461028557806342966c68146102985780635c975abb146102ab57600080fd5b80632f2ff15d14610246578063313ce5671461025b57806336568abe1461026a57600080fd5b806301ffc9a7146101ae57806306fdde03146101d6578063095ea7b3146101eb57806318160ddd146101fe57806323b872dd14610210578063248a9ca314610223575b600080fd5b6101c16101bc366004610d2e565b61040e565b60405190151581526020015b60405180910390f35b6101de610439565b6040516101cd9190610d5f565b6101c16101f9366004610dc9565b6104cb565b6002545b6040519081526020016101cd565b6101c161021e366004610df3565b6104e3565b610202610231366004610e2f565b60009081526006602052604090206001015490565b610259610254366004610e48565b610507565b005b604051601281526020016101cd565b610259610278366004610e48565b610532565b61025961056a565b610259610293366004610dc9565b61059f565b6102596102a6366004610e2f565b6105d3565b60055460ff166101c1565b6102026102c4366004610e74565b6001600160a01b031660009081526020819052604090205490565b6102596105dd565b6102596102f5366004610dc9565b6105f1565b61025961060a565b60055461010090046001600160a01b03166040516001600160a01b0390911681526020016101cd565b6101c1610339366004610e48565b61063c565b6101de610667565b610202600081565b6101c161035c366004610dc9565b610676565b6102027f9f2df0fed2c77648de5860a4cc508cd0818c85b8b8a1ab4ceeef8d981c8956a681565b610259610396366004610e48565b610684565b6102026103a9366004610e8f565b6001600160a01b03918216600090815260016020908152604080832093909416825291909152205490565b6102027f65d7a28e3265b37a6474929f336521b332c1681b933f6cb9f3376673440d862a81565b610259610409366004610e74565b6106a9565b60006001600160e01b031982166336372b0760e01b14806104335750610433826106e9565b92915050565b60606003805461044890610eb9565b80601f016020809104026020016040519081016040528092919081815260200182805461047490610eb9565b80156104c15780601f10610496576101008083540402835291602001916104c1565b820191906000526020600020905b8154815290600101906020018083116104a457829003601f168201915b5050505050905090565b6000336104d981858561071e565b5060019392505050565b6000336104f185828561072b565b6104fc8585856107a4565b506001949350505050565b60008281526006602052604090206001015461052281610803565b61052c838361080d565b50505050565b6001600160a01b038116331461055b5760405163334bd91960e11b815260040160405180910390fd5b61056582826108a1565b505050565b7f65d7a28e3265b37a6474929f336521b332c1681b933f6cb9f3376673440d862a61059481610803565b61059c61090e565b50565b7f9f2df0fed2c77648de5860a4cc508cd0818c85b8b8a1ab4ceeef8d981c8956a66105c981610803565b6105658383610960565b61059c3382610996565b6105e56109cc565b6105ef60006109ff565b565b6105fc82338361072b565b6106068282610996565b5050565b7f65d7a28e3265b37a6474929f336521b332c1681b933f6cb9f3376673440d862a61063481610803565b61059c610a59565b60009182526006602090815260408084206001600160a01b0393909316845291905290205460ff1690565b60606004805461044890610eb9565b6000336104d98185856107a4565b60008281526006602052604090206001015461069f81610803565b61052c83836108a1565b6106b16109cc565b6001600160a01b0381166106e057604051631e4fbdf760e01b8152600060048201526024015b60405180910390fd5b61059c816109ff565b60006001600160e01b03198216637965db0b60e01b148061043357506301ffc9a760e01b6001600160e01b0319831614610433565b6105658383836001610a96565b6001600160a01b0383811660009081526001602090815260408083209386168352929052205460001981101561052c578181101561079557604051637dc7a0d960e11b81526001600160a01b038416600482015260248101829052604481018390526064016106d7565b61052c84848484036000610a96565b6001600160a01b0383166107ce57604051634b637e8f60e11b8152600060048201526024016106d7565b6001600160a01b0382166107f85760405163ec442f0560e01b8152600060048201526024016106d7565b610565838383610b6b565b61059c8133610b76565b6000610819838361063c565b6108995760008381526006602090815260408083206001600160a01b03861684529091529020805460ff191660011790556108513390565b6001600160a01b0316826001600160a01b0316847f2f8788117e7eff1d82e926ec794901d17c78024a50270940304540a733656f0d60405160405180910390a4506001610433565b506000610433565b60006108ad838361063c565b156108995760008381526006602090815260408083206001600160a01b0386168085529252808320805460ff1916905551339286917ff6391f5c32d9c69d2a47ea670b442974b53935d1edc7fd64eb21e047a839171b9190a4506001610433565b610916610baf565b6005805460ff191690557f5db9ee0a495bf2e6ff9c91a7834c1ba4fdd244a5e8aa4e537bd38aeae4b073aa335b6040516001600160a01b03909116815260200160405180910390a1565b6001600160a01b03821661098a5760405163ec442f0560e01b8152600060048201526024016106d7565b61060660008383610b6b565b6001600160a01b0382166109c057604051634b637e8f60e11b8152600060048201526024016106d7565b61060682600083610b6b565b6005546001600160a01b036101009091041633146105ef5760405163118cdaa760e01b81523360048201526024016106d7565b600580546001600160a01b03838116610100818102610100600160a81b031985161790945560405193909204169182907f8be0079c531659141344cd1fd0a4f28419497f9722a3daafe3b4186f6b6457e090600090a35050565b610a61610bd2565b6005805460ff191660011790557f62e78cea01bee320cd4e420270b5ea74000d11b0c9f74754ebdbfc544b05a2586109433390565b6001600160a01b038416610ac05760405163e602df0560e01b8152600060048201526024016106d7565b6001600160a01b038316610aea57604051634a1406b160e11b8152600060048201526024016106d7565b6001600160a01b038085166000908152600160209081526040808320938716835292905220829055801561052c57826001600160a01b0316846001600160a01b03167f8c5be1e5ebec7d5bd14f71427d1e84f3dd0314c0f7b2291e5b200ac8c7c3b92584604051610b5d91815260200190565b60405180910390a350505050565b610565838383610bf6565b610b80828261063c565b6106065760405163e2517d3f60e01b81526001600160a01b0382166004820152602481018390526044016106d7565b60055460ff166105ef57604051638dfc202b60e01b815260040160405180910390fd5b60055460ff16156105ef5760405163d93c066560e01b815260040160405180910390fd5b610bfe610bd2565b6105658383836001600160a01b038316610c2f578060026000828254610c249190610ef3565b90915550610ca19050565b6001600160a01b03831660009081526020819052604090205481811015610c825760405163391434e360e21b81526001600160a01b038516600482015260248101829052604481018390526064016106d7565b6001600160a01b03841660009081526020819052604090209082900390555b6001600160a01b038216610cbd57600280548290039055610cdc565b6001600160a01b03821660009081526020819052604090208054820190555b816001600160a01b0316836001600160a01b03167fddf252ad1be2c89b69c2b068fc378daa952ba7f163c4a11628f55a4df523b3ef83604051610d2191815260200190565b60405180910390a3505050565b600060208284031215610d4057600080fd5b81356001600160e01b031981168114610d5857600080fd5b9392505050565b600060208083528351808285015260005b81811015610d8c57858101830151858201604001528201610d70565b506000604082860101526040601f19601f8301168501019250505092915050565b80356001600160a01b0381168114610dc457600080fd5b919050565b60008060408385031215610ddc57600080fd5b610de583610dad565b946020939093013593505050565b600080600060608486031215610e0857600080fd5b610e1184610dad565b9250610e1f60208501610dad565b9150604084013590509250925092565b600060208284031215610e4157600080fd5b5035919050565b60008060408385031215610e5b57600080fd5b82359150610e6b60208401610dad565b90509250929050565b600060208284031215610e8657600080fd5b610d5882610dad565b60008060408385031215610ea257600080fd5b610eab83610dad565b9150610e6b60208401610dad565b600181811c90821680610ecd57607f821691505b602082108103610eed57634e487b7160e01b600052602260045260246000fd5b50919050565b8082018082111561043357634e487b7160e01b600052601160045260246000fdfea264697066735822122087989ec0c78586309a5bd9e43f422674cfc33999c006c8fc33b570c99b28dff964736f6c63430008140033",
  "linkReferences": {},
  "deployedLinkReferences": {}
}