{
  "_format": "hh-sol-artifact-1",
  "contractName": "TeamLockup",
  "sourceName": "contracts/TeamLockup.sol",
  "abi": [
    {
      "inputs": [
        {
          "internalType": "address",
          "name": "token_",
          "type": "address"
        },
        {
          "internalType": "address",
          "name": "officialBurnAddress_",
          "type": "address"
        },
        {
          "internalType": "uint256",
          "name": "teamAllocation_",
          "type": "uint256"
        },
        {
          "internalType": "uint256",
          "name": "totalSupplyBase_",
          "type": "uint256"
        },
        {
          "internalType": "address",
          "name": "admin_",
          "type": "address"
        }
      ],
      "stateMutability": "nonpayable",
      "type": "constructor"
    },
    {
      "inputs": [],
      "name": "AccessControlBadConfirmation",
      "type": "error"
    },
    {
      "inputs": [
        {
          "internalType": "address",
          "name": "account",
          "type": "address"
        },
        {
          "internalType": "bytes32",
          "name": "neededRole",
          "type": "bytes32"
        }
      ],
      "name": "AccessControlUnauthorizedAccount",
      "type": "error"
    },
    {
      "inputs": [],
      "name": "ReentrancyGuardReentrantCall",
      "type": "error"
    },
    {
      "inputs": [
        {
          "internalType": "address",
          "name": "token",
          "type": "address"
        }
      ],
      "name": "SafeERC20FailedOperation",
      "type": "error"
    },
    {
      "anonymous": false,
      "inputs": [
        {
          "indexed": false,
          "internalType": "uint256",
          "name": "count",
          "type": "uint256"
        },
        {
          "indexed": false,
          "internalType": "uint256",
          "name": "totalAllocation",
          "type": "uint256"
        }
      ],
      "name": "BeneficiariesFinalized",
      "type": "event"
    },
    {
      "anonymous": false,
      "inputs": [
        {
          "indexed": true,
          "internalType": "address",
          "name": "account",
          "type": "address"
        },
        {
          "indexed": false,
          "internalType": "uint256",
          "name": "amount",
          "type": "uint256"
        }
      ],
      "name": "BeneficiaryClaimed",
      "type": "event"
    },
    {
      "anonymous": false,
      "inputs": [
        {
          "indexed": true,
          "internalType": "address",
          "name": "account",
          "type": "address"
        },
        {
          "indexed": false,
          "internalType": "uint256",
          "name": "allocation",
          "type": "uint256"
        }
      ],
      "name": "BeneficiaryRegistered",
      "type": "event"
    },
    {
      "anonymous": false,
      "inputs": [
        {
          "indexed": false,
          "internalType": "uint256",
          "name": "cumulativeVerifiedBurned",
          "type": "uint256"
        },
        {
          "indexed": false,
          "internalType": "uint256",
          "name": "unlockedPool",
          "type": "uint256"
        }
      ],
      "name": "MilestoneReached",
      "type": "event"
    },
    {
      "anonymous": false,
      "inputs": [
        {
          "indexed": true,
          "internalType": "address",
          "name": "newAddress",
          "type": "address"
        }
      ],
      "name": "OfficialBurnAddressUpdated",
      "type": "event"
    },
    {
      "anonymous": false,
      "inputs": [
        {
          "indexed": true,
          "internalType": "bytes32",
          "name": "role",
          "type": "bytes32"
        },
        {
          "indexed": true,
          "internalType": "bytes32",
          "name": "previousAdminRole",
          "type": "bytes32"
        },
        {
          "indexed": true,
          "internalType": "bytes32",
          "name": "newAdminRole",
          "type": "bytes32"
        }
      ],
      "name": "RoleAdminChanged",
      "type": "event"
    },
    {
      "anonymous": false,
      "inputs": [
        {
          "indexed": true,
          "internalType": "bytes32",
          "name": "role",
          "type": "bytes32"
        },
        {
          "indexed": true,
          "internalType": "address",
          "name": "account",
          "type": "address"
        },
        {
          "indexed": true,
          "internalType": "address",
          "name": "sender",
          "type": "address"
        }
      ],
      "name": "RoleGranted",
      "type": "event"
    },
    {
      "anonymous": false,
      "inputs": [
        {
          "indexed": true,
          "internalType": "bytes32",
          "name": "role",
          "type": "bytes32"
        },
        {
          "indexed": true,
          "internalType": "address",
          "name": "account",
          "type": "address"
        },
        {
          "indexed": true,
          "internalType": "address",
          "name": "sender",
          "type": "address"
        }
      ],
      "name": "RoleRevoked",
      "type": "event"
    },
    {
      "anonymous": false,
      "inputs": [
        {
          "indexed": false,
          "internalType": "uint256",
          "name": "amount",
          "type": "uint256"
        },
        {
          "indexed": false,
          "internalType": "uint256",
          "name": "totalTeamBurned",
          "type": "uint256"
        }
      ],
      "name": "TeamTokensBurned",
      "type": "event"
    },
    {
      "anonymous": false,
      "inputs": [
        {
          "indexed": false,
          "internalType": "uint256",
          "name": "cumulativeVerifiedBurned",
          "type": "uint256"
        },
        {
          "indexed": true,
          "internalType": "address",
          "name": "by",
          "type": "address"
        }
      ],
      "name": "VerifiedBurnSynced",
      "type": "event"
    },
    {
      "inputs": [],
      "name": "BURN_ORACLE_ROLE",
      "outputs": [
        {
          "internalType": "bytes32",
          "name": "",
          "type": "bytes32"
        }
      ],
      "stateMutability": "view",
      "type": "function"
    },
    {
      "inputs": [],
      "name": "DEFAULT_ADMIN_ROLE",
      "outputs": [
        {
          "internalType": "bytes32",
          "name": "",
          "type": "bytes32"
        }
      ],
      "stateMutability": "view",
      "type": "function"
    },
    {
      "inputs": [
        {
          "internalType": "address",
          "name": "",
          "type": "address"
        }
      ],
      "name": "beneficiaries",
      "outputs": [
        {
          "internalType": "uint256",
          "name": "allocation",
          "type": "uint256"
        },
        {
          "internalType": "bool",
          "name": "claimed",
          "type": "bool"
        }
      ],
      "stateMutability": "view",
      "type": "function"
    },
    {
      "inputs": [],
      "name": "beneficiariesFinalized",
      "outputs": [
        {
          "internalType": "bool",
          "name": "",
          "type": "bool"
        }
      ],
      "stateMutability": "view",
      "type": "function"
    },
    {
      "inputs": [],
      "name": "beneficiaryCount",
      "outputs": [
        {
          "internalType": "uint256",
          "name": "",
          "type": "uint256"
        }
      ],
      "stateMutability": "view",
      "type": "function"
    },
    {
      "inputs": [
        {
          "internalType": "uint256",
          "name": "",
          "type": "uint256"
        }
      ],
      "name": "beneficiaryList",
      "outputs": [
        {
          "internalType": "address",
          "name": "",
          "type": "address"
        }
      ],
      "stateMutability": "view",
      "type": "function"
    },
    {
      "inputs": [],
      "name": "bonusPoolUnlocked",
      "outputs": [
        {
          "internalType": "bool",
          "name": "",
          "type": "bool"
        }
      ],
      "stateMutability": "view",
      "type": "function"
    },
    {
      "inputs": [],
      "name": "burnMilestone",
      "outputs": [
        {
          "internalType": "uint256",
          "name": "",
          "type": "uint256"
        }
      ],
      "stateMutability": "view",
      "type": "function"
    },
    {
      "inputs": [],
      "name": "burnProgressBps",
      "outputs": [
        {
          "internalType": "uint256",
          "name": "",
          "type": "uint256"
        }
      ],
      "stateMutability": "view",
      "type": "function"
    },
    {
      "inputs": [],
      "name": "claim",
      "outputs": [],
      "stateMutability": "nonpayable",
      "type": "function"
    },
    {
      "inputs": [
        {
          "internalType": "address",
          "name": "account",
          "type": "address"
        }
      ],
      "name": "claimableOf",
      "outputs": [
        {
          "internalType": "uint256",
          "name": "",
          "type": "uint256"
        }
      ],
      "stateMutability": "view",
      "type": "function"
    },
    {
      "inputs": [],
      "name": "cumulativeVerifiedBurned",
      "outputs": [
        {
          "internalType": "uint256",
          "name": "",
          "type": "uint256"
        }
      ],
      "stateMutability": "view",
      "type": "function"
    },
    {
      "inputs": [],
      "name": "finalizeBeneficiaries",
      "outputs": [],
      "stateMutability": "nonpayable",
      "type": "function"
    },
    {
      "inputs": [
        {
          "internalType": "bytes32",
          "name": "role",
          "type": "bytes32"
        }
      ],
      "name": "getRoleAdmin",
      "outputs": [
        {
          "internalType": "bytes32",
          "name": "",
          "type": "bytes32"
        }
      ],
      "stateMutability": "view",
      "type": "function"
    },
    {
      "inputs": [
        {
          "internalType": "bytes32",
          "name": "role",
          "type": "bytes32"
        },
        {
          "internalType": "address",
          "name": "account",
          "type": "address"
        }
      ],
      "name": "grantRole",
      "outputs": [],
      "stateMutability": "nonpayable",
      "type": "function"
    },
    {
      "inputs": [
        {
          "internalType": "bytes32",
          "name": "role",
          "type": "bytes32"
        },
        {
          "internalType": "address",
          "name": "account",
          "type": "address"
        }
      ],
      "name": "hasRole",
      "outputs": [
        {
          "internalType": "bool",
          "name": "",
          "type": "bool"
        }
      ],
      "stateMutability": "view",
      "type": "function"
    },
    {
      "inputs": [],
      "name": "milestoneReached",
      "outputs": [
        {
          "internalType": "bool",
          "name": "",
          "type": "bool"
        }
      ],
      "stateMutability": "view",
      "type": "function"
    },
    {
      "inputs": [],
      "name": "observedNonTeamBurned",
      "outputs": [
        {
          "internalType": "uint256",
          "name": "",
          "type": "uint256"
        }
      ],
      "stateMutability": "view",
      "type": "function"
    },
    {
      "inputs": [],
      "name": "officialBurnAddress",
      "outputs": [
        {
          "internalType": "address",
          "name": "",
          "type": "address"
        }
      ],
      "stateMutability": "view",
      "type": "function"
    },
    {
      "inputs": [
        {
          "internalType": "address",
          "name": "account",
          "type": "address"
        },
        {
          "internalType": "uint256",
          "name": "allocation",
          "type": "uint256"
        }
      ],
      "name": "registerBeneficiary",
      "outputs": [],
      "stateMutability": "nonpayable",
      "type": "function"
    },
    {
      "inputs": [],
      "name": "remainingLockedTeam",
      "outputs": [
        {
          "internalType": "uint256",
          "name": "",
          "type": "uint256"
        }
      ],
      "stateMutability": "view",
      "type": "function"
    },
    {
      "inputs": [
        {
          "internalType": "bytes32",
          "name": "role",
          "type": "bytes32"
        },
        {
          "internalType": "address",
          "name": "callerConfirmation",
          "type": "address"
        }
      ],
      "name": "renounceRole",
      "outputs": [],
      "stateMutability": "nonpayable",
      "type": "function"
    },
    {
      "inputs": [
        {
          "internalType": "uint256",
          "name": "cumulativeAmount",
          "type": "uint256"
        }
      ],
      "name": "reportVerifiedBurn",
      "outputs": [],
      "stateMutability": "nonpayable",
      "type": "function"
    },
    {
      "inputs": [
        {
          "internalType": "bytes32",
          "name": "role",
          "type": "bytes32"
        },
        {
          "internalType": "address",
          "name": "account",
          "type": "address"
        }
      ],
      "name": "revokeRole",
      "outputs": [],
      "stateMutability": "nonpayable",
      "type": "function"
    },
    {
      "inputs": [
        {
          "internalType": "address",
          "name": "a",
          "type": "address"
        }
      ],
      "name": "setOfficialBurnAddress",
      "outputs": [],
      "stateMutability": "nonpayable",
      "type": "function"
    },
    {
      "inputs": [
        {
          "internalType": "bytes4",
          "name": "interfaceId",
          "type": "bytes4"
        }
      ],
      "name": "supportsInterface",
      "outputs": [
        {
          "internalType": "bool",
          "name": "",
          "type": "bool"
        }
      ],
      "stateMutability": "view",
      "type": "function"
    },
    {
      "inputs": [],
      "name": "syncBurnFromAddress",
      "outputs": [],
      "stateMutability": "nonpayable",
      "type": "function"
    },
    {
      "inputs": [],
      "name": "teamAllocation",
      "outputs": [
        {
          "internalType": "uint256",
          "name": "",
          "type": "uint256"
        }
      ],
      "stateMutability": "view",
      "type": "function"
    },
    {
      "inputs": [],
      "name": "teamAllocationBurned",
      "outputs": [
        {
          "internalType": "uint256",
          "name": "",
          "type": "uint256"
        }
      ],
      "stateMutability": "view",
      "type": "function"
    },
    {
      "inputs": [],
      "name": "token",
      "outputs": [
        {
          "internalType": "contract IERC20Burnable",
          "name": "",
          "type": "address"
        }
      ],
      "stateMutability": "view",
      "type": "function"
    },
    {
      "inputs": [],
      "name": "totalRegisteredAllocation",
      "outputs": [
        {
          "internalType": "uint256",
          "name": "",
          "type": "uint256"
        }
      ],
      "stateMutability": "view",
      "type": "function"
    },
    {
      "inputs": [],
      "name": "totalSupplyBase",
      "outputs": [
        {
          "internalType": "uint256",
          "name": "",
          "type": "uint256"
        }
      ],
      "stateMutability": "view",
      "type": "function"
    },
    {
      "inputs": [],
      "name": "unlockedPoolSnapshot",
      "outputs": [
        {
          "internalType": "uint256",
          "name": "",
          "type": "uint256"
        }
      ],
      "stateMutability": "view",
      "type": "function"
    }
  ],
  "bytecode": "0x6101006040523480156200001257600080fd5b5060405162001add38038062001add8339810160408190526200003591620002c6565b60017f9b779b17422d0df92223018b32b4d1fa46e071723d6817e2486d003becc55f00556001600160a01b0385166200009f5760405162461bcd60e51b81526020600482015260076024820152660746f6b656e3d360cc1b60448201526064015b60405180910390fd5b6001600160a01b038116620000e15760405162461bcd60e51b8152602060048201526007602482015266061646d696e3d360cc1b604482015260640162000096565b60008311620001265760405162461bcd60e51b815260206004820152601060248201526f07465616d416c6c6f636174696f6e3d360841b604482015260640162000096565b6200013383600262000324565b821015620001755760405162461bcd60e51b815260206004820152600e60248201526d18985cd9481d1bdbc81cdb585b1b60921b604482015260640162000096565b6001600160a01b03858116608052600180546001600160a01b03191691861691909117905560a083905260c0829052620001b16002836200034a565b60e052620001c1600082620001fa565b50620001ee7fa23970373232bddf078641354a1c926176c835768f4bba08c36ec91c9cc09e7482620001fa565b5050505050506200036d565b6000828152602081815260408083206001600160a01b038516845290915281205460ff166200029f576000838152602081815260408083206001600160a01b03861684529091529020805460ff19166001179055620002563390565b6001600160a01b0316826001600160a01b0316847f2f8788117e7eff1d82e926ec794901d17c78024a50270940304540a733656f0d60405160405180910390a4506001620002a3565b5060005b92915050565b80516001600160a01b0381168114620002c157600080fd5b919050565b600080600080600060a08688031215620002df57600080fd5b620002ea86620002a9565b9450620002fa60208701620002a9565b935060408601519250606086015191506200031860808701620002a9565b90509295509295909350565b8082028115828204841417620002a357634e487b7160e01b600052601160045260246000fd5b6000826200036857634e487b7160e01b600052601260045260246000fd5b500490565b60805160a05160c05160e0516116c6620004176000396000818161032e0152818161049301526113680152600081816102ba01528181610a2501528181610f2701528181610f50015261115f01526000818161039a01528181610c590152818161113501526111830152600081816104ba01528181610683015281816108da015281816109ab01528181610dc101528181611200015281816112ac01526113be01526116c66000f3fe608060405234801561001057600080fd5b50600436106101fb5760003560e01c80636816521a1161011a578063bd53a00c116100ad578063d547741f1161007c578063d547741f14610469578063d6ddc7071461047c578063d764f03814610485578063f305ac3d1461048e578063fc0c546a146104b557600080fd5b8063bd53a00c1461043d578063c036aff814610446578063cf6fcb921461044e578063d50e3bc61461046157600080fd5b806391d14854116100e957806391d14854146103e45780639e761bbb146103f7578063a217fddf14610422578063ad53e36f1461042a57600080fd5b80636816521a14610395578063734b2a7c146103bc57806378f55d75146103c45780638903ab9d146103d157600080fd5b806336568abe116101925780634e71d92d116101615780634e71d92d1461036f5780635b14a6f014610377578063654e09021461037f57806366ce84811461038857600080fd5b806336568abe1461031657806338e64f9e146103295780633e093e0a146103545780634253b6c01461035c57600080fd5b8063248a9ca3116101ce578063248a9ca314610284578063278cc7a0146102b55780632dc49154146102dc5780632f2ff15d1461030357600080fd5b8063015677391461020057806301ffc9a7146102445780630ec978f41461026757806313a1d10c14610271575b600080fd5b61022a61020e36600461152e565b6006602052600090815260409020805460019091015460ff1682565b604080519283529015156020830152015b60405180910390f35b610257610252366004611549565b6104dc565b604051901515815260200161023b565b61026f610513565b005b61026f61027f366004611573565b610544565b6102a7610292366004611573565b60009081526020819052604090206001015490565b60405190815260200161023b565b6102a77f000000000000000000000000000000000000000000000000000000000000000081565b6102a77fa23970373232bddf078641354a1c926176c835768f4bba08c36ec91c9cc09e7481565b61026f61031136600461158c565b6105e5565b61026f61032436600461158c565b610610565b6002547f00000000000000000000000000000000000000000000000000000000000000001115610257565b6102a7610648565b61026f61036a36600461152e565b6106f6565b61026f61074c565b6102a7610a21565b6102a760085481565b6009546102579060ff1681565b6102a77f000000000000000000000000000000000000000000000000000000000000000081565b6007546102a7565b6004546102579060ff1681565b6102a76103df36600461152e565b610a5e565b6102576103f236600461158c565b610ade565b61040a610405366004611573565b610b07565b6040516001600160a01b03909116815260200161023b565b6102a7600081565b61026f6104383660046115b8565b610b31565b6102a760035481565b6102a7610da9565b60015461040a906001600160a01b031681565b61026f610df8565b61026f61047736600461158c565b610ee4565b6102a760055481565b6102a760025481565b6102a77f000000000000000000000000000000000000000000000000000000000000000081565b61040a7f000000000000000000000000000000000000000000000000000000000000000081565b60006001600160e01b03198216637965db0b60e01b148061050d57506301ffc9a760e01b6001600160e01b03198316145b92915050565b61051b610f09565b61052b610526610648565b610f25565b610542600160008051602061167183398151915255565b565b7fa23970373232bddf078641354a1c926176c835768f4bba08c36ec91c9cc09e7461056e81610fc0565b610576610f09565b6002548210156105c15760405162461bcd60e51b81526020600482015260116024820152706d757374206e6f7420646563726561736560781b60448201526064015b60405180910390fd5b6105ca82610f25565b6105e1600160008051602061167183398151915255565b5050565b60008281526020819052604090206001015461060081610fc0565b61060a8383610fca565b50505050565b6001600160a01b03811633146106395760405163334bd91960e11b815260040160405180910390fd5b610643828261105c565b505050565b6001546000906001600160a01b03166106615750600090565b6001546040516370a0823160e01b81526001600160a01b0391821660048201527f0000000000000000000000000000000000000000000000000000000000000000909116906370a08231906024015b602060405180830381865afa1580156106cd573d6000803e3d6000fd5b505050506040513d601f19601f820116820180604052508101906106f191906115e2565b905090565b600061070181610fc0565b600180546001600160a01b0319166001600160a01b0384169081179091556040517f455337db5892a81819c5c53396fc850cdfc0366e1b74172f4b48a1de9c0a05ef90600090a25050565b610754610f09565b60045460ff166107a65760405162461bcd60e51b815260206004820152601d60248201527f6c6f636b65643a206d696c6573746f6e65206e6f74207265616368656400000060448201526064016105b8565b60095460ff166107f85760405162461bcd60e51b815260206004820152601b60248201527f62656e65666963696172696573206e6f742066696e616c697a6564000000000060448201526064016105b8565b33600090815260066020526040902080546108495760405162461bcd60e51b81526020600482015260116024820152706e6f7420612062656e656669636961727960781b60448201526064016105b8565b600181015460ff16156108905760405162461bcd60e51b815260206004820152600f60248201526e185b1c9958591e4818db185a5b5959608a1b60448201526064016105b8565b6008548154600554600092916108a591611611565b6108af9190611628565b6001838101805460ff191690911790556040516370a0823160e01b81523060048201529091506000907f00000000000000000000000000000000000000000000000000000000000000006001600160a01b0316906370a0823190602401602060405180830381865afa158015610929573d6000803e3d6000fd5b505050506040513d601f19601f8201168201806040525081019061094d91906115e2565b90508082111561095b578091505b6000821161099e5760405162461bcd60e51b815260206004820152601060248201526f6e6f7468696e6720746f20636c61696d60801b60448201526064016105b8565b6109d26001600160a01b037f00000000000000000000000000000000000000000000000000000000000000001633846110c7565b60405182815233907f735e2ef7d759ed5edc5b5cfd70bd63f00eddd61e652119b1825287362957ad599060200160405180910390a2505050610542600160008051602061167183398151915255565b60007f0000000000000000000000000000000000000000000000000000000000000000600254612710610a549190611611565b6106f19190611628565b60045460009060ff161580610a76575060095460ff16155b15610a8357506000919050565b6001600160a01b038216600090815260066020526040902080541580610aad5750600181015460ff165b15610abb5750600092915050565b6008548154600554610acd9190611611565b610ad79190611628565b9392505050565b6000918252602082815260408084206001600160a01b0393909316845291905290205460ff1690565b60078181548110610b1757600080fd5b6000918252602090912001546001600160a01b0316905081565b6000610b3c81610fc0565b60095460ff1615610b7b5760405162461bcd60e51b8152602060048201526009602482015268199a5b985b1a5e995960ba1b60448201526064016105b8565b6001600160a01b038316610bbd5760405162461bcd60e51b815260206004820152600960248201526806163636f756e743d360bc1b60448201526064016105b8565b60008211610bfc5760405162461bcd60e51b815260206004820152600c60248201526b0616c6c6f636174696f6e3d360a41b60448201526064016105b8565b6001600160a01b03831660009081526006602052604090205415610c575760405162461bcd60e51b8152602060048201526012602482015271185b1c9958591e481c9959da5cdd195c995960721b60448201526064016105b8565b7f000000000000000000000000000000000000000000000000000000000000000082600854610c86919061164a565b1115610cc95760405162461bcd60e51b815260206004820152601260248201527165786365656473207465616d20616c6c6f6360701b60448201526064016105b8565b604080518082018252838152600060208083018281526001600160a01b03881680845260069092529382209251835592516001928301805460ff191691151591909117905560078054928301815581527fa66cc928b5edb82af9bd49922954155ab7b0942694bea4ce44661d9a8736c68890910180546001600160a01b03191690921790915560088054849290610d6190849061164a565b90915550506040518281526001600160a01b038416907fff65a2f5a5680b4db6dadbe5e90a02bc72e5ad8534ac312ef33392750b2975949060200160405180910390a2505050565b6040516370a0823160e01b81523060048201526000907f00000000000000000000000000000000000000000000000000000000000000006001600160a01b0316906370a08231906024016106b0565b6000610e0381610fc0565b60095460ff1615610e4a5760405162461bcd60e51b8152602060048201526011602482015270185b1c9958591e48199a5b985b1a5e9959607a1b60448201526064016105b8565b600060085411610e8f5760405162461bcd60e51b815260206004820152601060248201526f6e6f2062656e6566696369617269657360801b60448201526064016105b8565b6009805460ff191660011790556007546008546040517f0cd8d9dc7ddcadeb9d28e8a8e259a5d66a5a446035d09e9a1e9438ac096d79d892610ed992908252602082015260400190565b60405180910390a150565b600082815260208190526040902060010154610eff81610fc0565b61060a838361105c565b610f116110fc565b600260008051602061167183398151915255565b7f0000000000000000000000000000000000000000000000000000000000000000811115610f7057507f00000000000000000000000000000000000000000000000000000000000000005b600254811115610fb557600281905560405181815233907f30822265db72209b6b57304373df9c6742e14e0dad07425eb4ee11ba03c3f4659060200160405180910390a25b610fbd61112c565b50565b610fbd8133611473565b6000610fd68383610ade565b611054576000838152602081815260408083206001600160a01b03861684529091529020805460ff1916600117905561100c3390565b6001600160a01b0316826001600160a01b0316847f2f8788117e7eff1d82e926ec794901d17c78024a50270940304540a733656f0d60405160405180910390a450600161050d565b50600061050d565b60006110688383610ade565b15611054576000838152602081815260408083206001600160a01b0386168085529252808320805460ff1916905551339286917ff6391f5c32d9c69d2a47ea670b442974b53935d1edc7fd64eb21e047a839171b9190a450600161050d565b6110d483838360016114ac565b61064357604051635274afe760e01b81526001600160a01b03841660048201526024016105b8565b6000805160206116718339815191525460020361054257604051633ee5aeb560e01b815260040160405180910390fd5b600061115960027f0000000000000000000000000000000000000000000000000000000000000000611628565b905060007f00000000000000000000000000000000000000000000000000000000000000006002547f00000000000000000000000000000000000000000000000000000000000000006111ac9190611611565b6111b69190611628565b9050818111156111c35750805b600354811115611358576000600354826111dd919061165d565b6040516370a0823160e01b81523060048201529091506000906001600160a01b037f000000000000000000000000000000000000000000000000000000000000000016906370a0823190602401602060405180830381865afa158015611247573d6000803e3d6000fd5b505050506040513d601f19601f8201168201806040525081019061126b91906115e2565b905080821115611279578091505b8115611355578160036000828254611291919061164a565b9091555050604051630852cd8d60e31b8152600481018390527f00000000000000000000000000000000000000000000000000000000000000006001600160a01b0316906342966c6890602401600060405180830381600087803b1580156112f857600080fd5b505af115801561130c573d6000803e3d6000fd5b505050507ff293e5778a241d02045fea8aefaa779fec52e8f86087754251e99de4aba3f0428260035460405161134c929190918252602082015260400190565b60405180910390a15b50505b60045460ff1615801561138d57507f000000000000000000000000000000000000000000000000000000000000000060025410155b156105e1576004805460ff191660011781556040516370a0823160e01b815230918101919091526001600160a01b037f000000000000000000000000000000000000000000000000000000000000000016906370a0823190602401602060405180830381865afa158015611405573d6000803e3d6000fd5b505050506040513d601f19601f8201168201806040525081019061142991906115e2565b60058190556002546040517fe5f196b7c35531c9cdf28ee121967688b244c8557b574489a6182e8f66c929d392611467928252602082015260400190565b60405180910390a15050565b61147d8282610ade565b6105e15760405163e2517d3f60e01b81526001600160a01b0382166004820152602481018390526044016105b8565b60405163a9059cbb60e01b60008181526001600160a01b038616600452602485905291602083604481808b5af1925060016000511483166115065783831516156114f9573d6000823e3d81fd5b6000873b113d1516831692505b60405250949350505050565b80356001600160a01b038116811461152957600080fd5b919050565b60006020828403121561154057600080fd5b610ad782611512565b60006020828403121561155b57600080fd5b81356001600160e01b031981168114610ad757600080fd5b60006020828403121561158557600080fd5b5035919050565b6000806040838503121561159f57600080fd5b823591506115af60208401611512565b90509250929050565b600080604083850312156115cb57600080fd5b6115d483611512565b946020939093013593505050565b6000602082840312156115f457600080fd5b5051919050565b634e487b7160e01b600052601160045260246000fd5b808202811582820484141761050d5761050d6115fb565b60008261164557634e487b7160e01b600052601260045260246000fd5b500490565b8082018082111561050d5761050d6115fb565b8181038181111561050d5761050d6115fb56fe9b779b17422d0df92223018b32b4d1fa46e071723d6817e2486d003becc55f00a2646970667358221220928876468190f6582af85543ffb0b50340c47e5cdbc089d8c36cc261dfb1aa7c64736f6c63430008140033",
  "linkReferences": {},
  "deployedLinkReferences": {}
}