{
  "_format": "hh-sol-artifact-1",
  "contractName": "BlockLabelToken",
  "sourceName": "contracts/BlockLabelToken.sol",
  "abi": [
    {
      "inputs": [
        {
          "internalType": "string",
          "name": "name_",
          "type": "string"
        },
        {
          "internalType": "string",
          "name": "symbol_",
          "type": "string"
        },
        {
          "internalType": "uint256",
          "name": "initialSupply",
          "type": "uint256"
        }
      ],
      "stateMutability": "nonpayable",
      "type": "constructor"
    },
    {
      "inputs": [],
      "name": "AccessControlBadConfirmation",
      "type": "error"
    },
    {
      "inputs": [
        {
          "internalType": "address",
          "name": "account",
          "type": "address"
        },
        {
          "internalType": "bytes32",
          "name": "neededRole",
          "type": "bytes32"
        }
      ],
      "name": "AccessControlUnauthorizedAccount",
      "type": "error"
    },
    {
      "inputs": [
        {
          "internalType": "address",
          "name": "spender",
          "type": "address"
        },
        {
          "internalType": "uint256",
          "name": "allowance",
          "type": "uint256"
        },
        {
          "internalType": "uint256",
          "name": "needed",
          "type": "uint256"
        }
      ],
      "name": "ERC20InsufficientAllowance",
      "type": "error"
    },
    {
      "inputs": [
        {
          "internalType": "address",
          "name": "sender",
          "type": "address"
        },
        {
          "internalType": "uint256",
          "name": "balance",
          "type": "uint256"
        },
        {
          "internalType": "uint256",
          "name": "needed",
          "type": "uint256"
        }
      ],
      "name": "ERC20InsufficientBalance",
      "type": "error"
    },
    {
      "inputs": [
        {
          "internalType": "address",
          "name": "approver",
          "type": "address"
        }
      ],
      "name": "ERC20InvalidApprover",
      "type": "error"
    },
    {
      "inputs": [
        {
          "internalType": "address",
          "name": "receiver",
          "type": "address"
        }
      ],
      "name": "ERC20InvalidReceiver",
      "type": "error"
    },
    {
      "inputs": [
        {
          "internalType": "address",
          "name": "sender",
          "type": "address"
        }
      ],
      "name": "ERC20InvalidSender",
      "type": "error"
    },
    {
      "inputs": [
        {
          "internalType": "address",
          "name": "spender",
          "type": "address"
        }
      ],
      "name": "ERC20InvalidSpender",
      "type": "error"
    },
    {
      "inputs": [],
      "name": "EnforcedPause",
      "type": "error"
    },
    {
      "inputs": [],
      "name": "ExpectedPause",
      "type": "error"
    },
    {
      "inputs": [
        {
          "internalType": "address",
          "name": "owner",
          "type": "address"
        }
      ],
      "name": "OwnableInvalidOwner",
      "type": "error"
    },
    {
      "inputs": [
        {
          "internalType": "address",
          "name": "account",
          "type": "address"
        }
      ],
      "name": "OwnableUnauthorizedAccount",
      "type": "error"
    },
    {
      "anonymous": false,
      "inputs": [
        {
          "indexed": true,
          "internalType": "address",
          "name": "owner",
          "type": "address"
        },
        {
          "indexed": true,
          "internalType": "address",
          "name": "spender",
          "type": "address"
        },
        {
          "indexed": false,
          "internalType": "uint256",
          "name": "value",
          "type": "uint256"
        }
      ],
      "name": "Approval",
      "type": "event"
    },
    {
      "anonymous": false,
      "inputs": [
        {
          "indexed": true,
          "internalType": "address",
          "name": "previousOwner",
          "type": "address"
        },
        {
          "indexed": true,
          "internalType": "address",
          "name": "newOwner",
          "type": "address"
        }
      ],
      "name": "OwnershipTransferred",
      "type": "event"
    },
    {
      "anonymous": false,
      "inputs": [
        {
          "indexed": false,
          "internalType": "address",
          "name": "account",
          "type": "address"
        }
      ],
      "name": "Paused",
      "type": "event"
    },
    {
      "anonymous": false,
      "inputs": [
        {
          "indexed": true,
          "internalType": "bytes32",
          "name": "role",
          "type": "bytes32"
        },
        {
          "indexed": true,
          "internalType": "bytes32",
          "name": "previousAdminRole",
          "type": "bytes32"
        },
        {
          "indexed": true,
          "internalType": "bytes32",
          "name": "newAdminRole",
          "type": "bytes32"
        }
      ],
      "name": "RoleAdminChanged",
      "type": "event"
    },
    {
      "anonymous": false,
      "inputs": [
        {
          "indexed": true,
          "internalType": "bytes32",
          "name": "role",
          "type": "bytes32"
        },
        {
          "indexed": true,
          "internalType": "address",
          "name": "account",
          "type": "address"
        },
        {
          "indexed": true,
          "internalType": "address",
          "name": "sender",
          "type": "address"
        }
      ],
      "name": "RoleGranted",
      "type": "event"
    },
    {
      "anonymous": false,
      "inputs": [
        {
          "indexed": true,
          "internalType": "bytes32",
          "name": "role",
          "type": "bytes32"
        },
        {
          "indexed": true,
          "internalType": "address",
          "name": "account",
          "type": "address"
        },
        {
          "indexed": true,
          "internalType": "address",
          "name": "sender",
          "type": "address"
        }
      ],
      "name": "RoleRevoked",
      "type": "event"
    },
    {
      "anonymous": false,
      "inputs": [
        {
          "indexed": true,
          "internalType": "address",
          "name": "from",
          "type": "address"
        },
        {
          "indexed": true,
          "internalType": "address",
          "name": "to",
          "type": "address"
        },
        {
          "indexed": false,
          "internalType": "uint256",
          "name": "value",
          "type": "uint256"
        }
      ],
      "name": "Transfer",
      "type": "event"
    },
    {
      "anonymous": false,
      "inputs": [
        {
          "indexed": false,
          "internalType": "address",
          "name": "account",
          "type": "address"
        }
      ],
      "name": "Unpaused",
      "type": "event"
    },
    {
      "inputs": [],
      "name": "DEFAULT_ADMIN_ROLE",
      "outputs": [
        {
          "internalType": "bytes32",
          "name": "",
          "type": "bytes32"
        }
      ],
      "stateMutability": "view",
      "type": "function"
    },
    {
      "inputs": [],
      "name": "PAUSER_ROLE",
      "outputs": [
        {
          "internalType": "bytes32",
          "name": "",
          "type": "bytes32"
        }
      ],
      "stateMutability": "view",
      "type": "function"
    },
    {
      "inputs": [
        {
          "internalType": "address",
          "name": "owner",
          "type": "address"
        },
        {
          "internalType": "address",
          "name": "spender",
          "type": "address"
        }
      ],
      "name": "allowance",
      "outputs": [
        {
          "internalType": "uint256",
          "name": "",
          "type": "uint256"
        }
      ],
      "stateMutability": "view",
      "type": "function"
    },
    {
      "inputs": [
        {
          "internalType": "address",
          "name": "spender",
          "type": "address"
        },
        {
          "internalType": "uint256",
          "name": "value",
          "type": "uint256"
        }
      ],
      "name": "approve",
      "outputs": [
        {
          "internalType": "bool",
          "name": "",
          "type": "bool"
        }
      ],
      "stateMutability": "nonpayable",
      "type": "function"
    },
    {
      "inputs": [
        {
          "internalType": "address",
          "name": "account",
          "type": "address"
        }
      ],
      "name": "balanceOf",
      "outputs": [
        {
          "internalType": "uint256",
          "name": "",
          "type": "uint256"
        }
      ],
      "stateMutability": "view",
      "type": "function"
    },
    {
      "inputs": [
        {
          "internalType": "uint256",
          "name": "value",
          "type": "uint256"
        }
      ],
      "name": "burn",
      "outputs": [],
      "stateMutability": "nonpayable",
      "type": "function"
    },
    {
      "inputs": [
        {
          "internalType": "address",
          "name": "account",
          "type": "address"
        },
        {
          "internalType": "uint256",
          "name": "value",
          "type": "uint256"
        }
      ],
      "name": "burnFrom",
      "outputs": [],
      "stateMutability": "nonpayable",
      "type": "function"
    },
    {
      "inputs": [],
      "name": "decimals",
      "outputs": [
        {
          "internalType": "uint8",
          "name": "",
          "type": "uint8"
        }
      ],
      "stateMutability": "view",
      "type": "function"
    },
    {
      "inputs": [
        {
          "internalType": "bytes32",
          "name": "role",
          "type": "bytes32"
        }
      ],
      "name": "getRoleAdmin",
      "outputs": [
        {
          "internalType": "bytes32",
          "name": "",
          "type": "bytes32"
        }
      ],
      "stateMutability": "view",
      "type": "function"
    },
    {
      "inputs": [
        {
          "internalType": "bytes32",
          "name": "role",
          "type": "bytes32"
        },
        {
          "internalType": "address",
          "name": "account",
          "type": "address"
        }
      ],
      "name": "grantRole",
      "outputs": [],
      "stateMutability": "nonpayable",
      "type": "function"
    },
    {
      "inputs": [
        {
          "internalType": "bytes32",
          "name": "role",
          "type": "bytes32"
        },
        {
          "internalType": "address",
          "name": "account",
          "type": "address"
        }
      ],
      "name": "hasRole",
      "outputs": [
        {
          "internalType": "bool",
          "name": "",
          "type": "bool"
        }
      ],
      "stateMutability": "view",
      "type": "function"
    },
    {
      "inputs": [],
      "name": "name",
      "outputs": [
        {
          "internalType": "string",
          "name": "",
          "type": "string"
        }
      ],
      "stateMutability": "view",
      "type": "function"
    },
    {
      "inputs": [],
      "name": "owner",
      "outputs": [
        {
          "internalType": "address",
          "name": "",
          "type": "address"
        }
      ],
      "stateMutability": "view",
      "type": "function"
    },
    {
      "inputs": [],
      "name": "pause",
      "outputs": [],
      "stateMutability": "nonpayable",
      "type": "function"
    },
    {
      "inputs": [],
      "name": "paused",
      "outputs": [
        {
          "internalType": "bool",
          "name": "",
          "type": "bool"
        }
      ],
      "stateMutability": "view",
      "type": "function"
    },
    {
      "inputs": [],
      "name": "renounceOwnership",
      "outputs": [],
      "stateMutability": "nonpayable",
      "type": "function"
    },
    {
      "inputs": [
        {
          "internalType": "bytes32",
          "name": "role",
          "type": "bytes32"
        },
        {
          "internalType": "address",
          "name": "callerConfirmation",
          "type": "address"
        }
      ],
      "name": "renounceRole",
      "outputs": [],
      "stateMutability": "nonpayable",
      "type": "function"
    },
    {
      "inputs": [
        {
          "internalType": "bytes32",
          "name": "role",
          "type": "bytes32"
        },
        {
          "internalType": "address",
          "name": "account",
          "type": "address"
        }
      ],
      "name": "revokeRole",
      "outputs": [],
      "stateMutability": "nonpayable",
      "type": "function"
    },
    {
      "inputs": [
        {
          "internalType": "bytes4",
          "name": "interfaceId",
          "type": "bytes4"
        }
      ],
      "name": "supportsInterface",
      "outputs": [
        {
          "internalType": "bool",
          "name": "",
          "type": "bool"
        }
      ],
      "stateMutability": "view",
      "type": "function"
    },
    {
      "inputs": [],
      "name": "symbol",
      "outputs": [
        {
          "internalType": "string",
          "name": "",
          "type": "string"
        }
      ],
      "stateMutability": "view",
      "type": "function"
    },
    {
      "inputs": [],
      "name": "totalSupply",
      "outputs": [
        {
          "internalType": "uint256",
          "name": "",
          "type": "uint256"
        }
      ],
      "stateMutability": "view",
      "type": "function"
    },
    {
      "inputs": [
        {
          "internalType": "address",
          "name": "to",
          "type": "address"
        },
        {
          "internalType": "uint256",
          "name": "value",
          "type": "uint256"
        }
      ],
      "name": "transfer",
      "outputs": [
        {
          "internalType": "bool",
          "name": "",
          "type": "bool"
        }
      ],
      "stateMutability": "nonpayable",
      "type": "function"
    },
    {
      "inputs": [
        {
          "internalType": "address",
          "name": "from",
          "type": "address"
        },
        {
          "internalType": "address",
          "name": "to",
          "type": "address"
        },
        {
          "internalType": "uint256",
          "name": "value",
          "type": "uint256"
        }
      ],
      "name": "transferFrom",
      "outputs": [
        {
          "internalType": "bool",
          "name": "",
          "type": "bool"
        }
      ],
      "stateMutability": "nonpayable",
      "type": "function"
    },
    {
      "inputs": [
        {
          "internalType": "address",
          "name": "newOwner",
          "type": "address"
        }
      ],
      "name": "transferOwnership",
      "outputs": [],
      "stateMutability": "nonpayable",
      "type": "function"
    },
    {
      "inputs": [],
      "name": "unpause",
      "outputs": [],
      "stateMutability": "nonpayable",
      "type": "function"
    }
  ],
  "bytecode": "0x60806040523480156200001157600080fd5b50604051620016373803806200163783398101604081905262000034916200048f565b338383600362000045838262000590565b50600462000054828262000590565b5050506001600160a01b0381166200008757604051631e4fbdf760e01b8152600060048201526024015b60405180910390fd5b6200009281620000fc565b50620000a060003362000156565b50620000cd7f65d7a28e3265b37a6474929f336521b332c1681b933f6cb9f3376673440d862a3362000156565b50620000f333620000e16012600a6200076f565b620000ed908462000787565b62000209565b505050620007b7565b600580546001600160a01b03838116610100818102610100600160a81b031985161790945560405193909204169182907f8be0079c531659141344cd1fd0a4f28419497f9722a3daafe3b4186f6b6457e090600090a35050565b60008281526006602090815260408083206001600160a01b038516845290915281205460ff16620001ff5760008381526006602090815260408083206001600160a01b03861684529091529020805460ff19166001179055620001b63390565b6001600160a01b0316826001600160a01b0316847f2f8788117e7eff1d82e926ec794901d17c78024a50270940304540a733656f0d60405160405180910390a450600162000203565b5060005b92915050565b6001600160a01b038216620002355760405163ec442f0560e01b8152600060048201526024016200007e565b620002436000838362000247565b5050565b6200025483838362000259565b505050565b6200026362000270565b6200025483838362000297565b60055460ff1615620002955760405163d93c066560e01b815260040160405180910390fd5b565b6001600160a01b038316620002c6578060026000828254620002ba9190620007a1565b909155506200033a9050565b6001600160a01b038316600090815260208190526040902054818110156200031b5760405163391434e360e21b81526001600160a01b038516600482015260248101829052604481018390526064016200007e565b6001600160a01b03841660009081526020819052604090209082900390555b6001600160a01b038216620003585760028054829003905562000377565b6001600160a01b03821660009081526020819052604090208054820190555b816001600160a01b0316836001600160a01b03167fddf252ad1be2c89b69c2b068fc378daa952ba7f163c4a11628f55a4df523b3ef83604051620003bd91815260200190565b60405180910390a3505050565b634e487b7160e01b600052604160045260246000fd5b600082601f830112620003f257600080fd5b81516001600160401b03808211156200040f576200040f620003ca565b604051601f8301601f19908116603f011681019082821181831017156200043a576200043a620003ca565b816040528381526020925086838588010111156200045757600080fd5b600091505b838210156200047b57858201830151818301840152908201906200045c565b600093810190920192909252949350505050565b600080600060608486031215620004a557600080fd5b83516001600160401b0380821115620004bd57600080fd5b620004cb87838801620003e0565b94506020860151915080821115620004e257600080fd5b50620004f186828701620003e0565b925050604084015190509250925092565b600181811c908216806200051757607f821691505b6020821081036200053857634e487b7160e01b600052602260045260246000fd5b50919050565b601f8211156200025457600081815260208120601f850160051c81016020861015620005675750805b601f850160051c820191505b81811015620005885782815560010162000573565b505050505050565b81516001600160401b03811115620005ac57620005ac620003ca565b620005c481620005bd845462000502565b846200053e565b602080601f831160018114620005fc5760008415620005e35750858301515b600019600386901b1c1916600185901b17855562000588565b600085815260208120601f198616915b828110156200062d578886015182559484019460019091019084016200060c565b50858210156200064c5787850151600019600388901b60f8161c191681555b5050505050600190811b01905550565b634e487b7160e01b600052601160045260246000fd5b600181815b80851115620006b35781600019048211156200069757620006976200065c565b80851615620006a557918102915b93841c939080029062000677565b509250929050565b600082620006cc5750600162000203565b81620006db5750600062000203565b8160018114620006f45760028114620006ff576200071f565b600191505062000203565b60ff8411156200071357620007136200065c565b50506001821b62000203565b5060208310610133831016604e8410600b841016171562000744575081810a62000203565b62000750838362000672565b80600019048211156200076757620007676200065c565b029392505050565b60006200078060ff841683620006bb565b9392505050565b80820281158282048414176200020357620002036200065c565b808201808211156200020357620002036200065c565b610e7080620007c76000396000f3fe608060405234801561001057600080fd5b50600436106101735760003560e01c806370a08231116100de57806395d89b4111610097578063d547741f11610071578063d547741f14610318578063dd62ed3e1461032b578063e63ab1e914610364578063f2fde38b1461038b57600080fd5b806395d89b41146102f5578063a217fddf146102fd578063a9059cbb1461030557600080fd5b806370a082311461026d578063715018a61461029657806379cc67901461029e5780638456cb59146102b15780638da5cb5b146102b957806391d14854146102e257600080fd5b80632f2ff15d116101305780632f2ff15d14610210578063313ce5671461022557806336568abe146102345780633f4ba83a1461024757806342966c681461024f5780635c975abb1461026257600080fd5b806301ffc9a71461017857806306fdde03146101a0578063095ea7b3146101b557806318160ddd146101c857806323b872dd146101da578063248a9ca3146101ed575b600080fd5b61018b610186366004610c54565b61039e565b60405190151581526020015b60405180910390f35b6101a86103c9565b6040516101979190610c85565b61018b6101c3366004610cef565b61045b565b6002545b604051908152602001610197565b61018b6101e8366004610d19565b610473565b6101cc6101fb366004610d55565b60009081526006602052604090206001015490565b61022361021e366004610d6e565b610497565b005b60405160128152602001610197565b610223610242366004610d6e565b6104c2565b6102236104fa565b61022361025d366004610d55565b61052f565b60055460ff1661018b565b6101cc61027b366004610d9a565b6001600160a01b031660009081526020819052604090205490565b610223610539565b6102236102ac366004610cef565b61054d565b610223610566565b60055461010090046001600160a01b03166040516001600160a01b039091168152602001610197565b61018b6102f0366004610d6e565b610598565b6101a86105c3565b6101cc600081565b61018b610313366004610cef565b6105d2565b610223610326366004610d6e565b6105e0565b6101cc610339366004610db5565b6001600160a01b03918216600090815260016020908152604080832093909416825291909152205490565b6101cc7f65d7a28e3265b37a6474929f336521b332c1681b933f6cb9f3376673440d862a81565b610223610399366004610d9a565b610605565b60006001600160e01b031982166336372b0760e01b14806103c357506103c382610645565b92915050565b6060600380546103d890610ddf565b80601f016020809104026020016040519081016040528092919081815260200182805461040490610ddf565b80156104515780601f1061042657610100808354040283529160200191610451565b820191906000526020600020905b81548152906001019060200180831161043457829003601f168201915b5050505050905090565b60003361046981858561067a565b5060019392505050565b600033610481858285610687565b61048c858585610700565b506001949350505050565b6000828152600660205260409020600101546104b28161075f565b6104bc8383610769565b50505050565b6001600160a01b03811633146104eb5760405163334bd91960e11b815260040160405180910390fd5b6104f582826107fd565b505050565b7f65d7a28e3265b37a6474929f336521b332c1681b933f6cb9f3376673440d862a6105248161075f565b61052c61086a565b50565b61052c33826108bc565b6105416108f2565b61054b6000610925565b565b610558823383610687565b61056282826108bc565b5050565b7f65d7a28e3265b37a6474929f336521b332c1681b933f6cb9f3376673440d862a6105908161075f565b61052c61097f565b60009182526006602090815260408084206001600160a01b0393909316845291905290205460ff1690565b6060600480546103d890610ddf565b600033610469818585610700565b6000828152600660205260409020600101546105fb8161075f565b6104bc83836107fd565b61060d6108f2565b6001600160a01b03811661063c57604051631e4fbdf760e01b8152600060048201526024015b60405180910390fd5b61052c81610925565b60006001600160e01b03198216637965db0b60e01b14806103c357506301ffc9a760e01b6001600160e01b03198316146103c3565b6104f583838360016109bc565b6001600160a01b038381166000908152600160209081526040808320938616835292905220546000198110156104bc57818110156106f157604051637dc7a0d960e11b81526001600160a01b03841660048201526024810182905260448101839052606401610633565b6104bc848484840360006109bc565b6001600160a01b03831661072a57604051634b637e8f60e11b815260006004820152602401610633565b6001600160a01b0382166107545760405163ec442f0560e01b815260006004820152602401610633565b6104f5838383610a91565b61052c8133610a9c565b60006107758383610598565b6107f55760008381526006602090815260408083206001600160a01b03861684529091529020805460ff191660011790556107ad3390565b6001600160a01b0316826001600160a01b0316847f2f8788117e7eff1d82e926ec794901d17c78024a50270940304540a733656f0d60405160405180910390a45060016103c3565b5060006103c3565b60006108098383610598565b156107f55760008381526006602090815260408083206001600160a01b0386168085529252808320805460ff1916905551339286917ff6391f5c32d9c69d2a47ea670b442974b53935d1edc7fd64eb21e047a839171b9190a45060016103c3565b610872610ad5565b6005805460ff191690557f5db9ee0a495bf2e6ff9c91a7834c1ba4fdd244a5e8aa4e537bd38aeae4b073aa335b6040516001600160a01b03909116815260200160405180910390a1565b6001600160a01b0382166108e657604051634b637e8f60e11b815260006004820152602401610633565b61056282600083610a91565b6005546001600160a01b0361010090910416331461054b5760405163118cdaa760e01b8152336004820152602401610633565b600580546001600160a01b03838116610100818102610100600160a81b031985161790945560405193909204169182907f8be0079c531659141344cd1fd0a4f28419497f9722a3daafe3b4186f6b6457e090600090a35050565b610987610af8565b6005805460ff191660011790557f62e78cea01bee320cd4e420270b5ea74000d11b0c9f74754ebdbfc544b05a25861089f3390565b6001600160a01b0384166109e65760405163e602df0560e01b815260006004820152602401610633565b6001600160a01b038316610a1057604051634a1406b160e11b815260006004820152602401610633565b6001600160a01b03808516600090815260016020908152604080832093871683529290522082905580156104bc57826001600160a01b0316846001600160a01b03167f8c5be1e5ebec7d5bd14f71427d1e84f3dd0314c0f7b2291e5b200ac8c7c3b92584604051610a8391815260200190565b60405180910390a350505050565b6104f5838383610b1c565b610aa68282610598565b6105625760405163e2517d3f60e01b81526001600160a01b038216600482015260248101839052604401610633565b60055460ff1661054b57604051638dfc202b60e01b815260040160405180910390fd5b60055460ff161561054b5760405163d93c066560e01b815260040160405180910390fd5b610b24610af8565b6104f58383836001600160a01b038316610b55578060026000828254610b4a9190610e19565b90915550610bc79050565b6001600160a01b03831660009081526020819052604090205481811015610ba85760405163391434e360e21b81526001600160a01b03851660048201526024810182905260448101839052606401610633565b6001600160a01b03841660009081526020819052604090209082900390555b6001600160a01b038216610be357600280548290039055610c02565b6001600160a01b03821660009081526020819052604090208054820190555b816001600160a01b0316836001600160a01b03167fddf252ad1be2c89b69c2b068fc378daa952ba7f163c4a11628f55a4df523b3ef83604051610c4791815260200190565b60405180910390a3505050565b600060208284031215610c6657600080fd5b81356001600160e01b031981168114610c7e57600080fd5b9392505050565b600060208083528351808285015260005b81811015610cb257858101830151858201604001528201610c96565b506000604082860101526040601f19601f8301168501019250505092915050565b80356001600160a01b0381168114610cea57600080fd5b919050565b60008060408385031215610d0257600080fd5b610d0b83610cd3565b946020939093013593505050565b600080600060608486031215610d2e57600080fd5b610d3784610cd3565b9250610d4560208501610cd3565b9150604084013590509250925092565b600060208284031215610d6757600080fd5b5035919050565b60008060408385031215610d8157600080fd5b82359150610d9160208401610cd3565b90509250929050565b600060208284031215610dac57600080fd5b610c7e82610cd3565b60008060408385031215610dc857600080fd5b610dd183610cd3565b9150610d9160208401610cd3565b600181811c90821680610df357607f821691505b602082108103610e1357634e487b7160e01b600052602260045260246000fd5b50919050565b808201808211156103c357634e487b7160e01b600052601160045260246000fdfea2646970667358221220296131e0612137d4d9591f7b08d9737e5a805d63fa3b20e0e87836cc87d0c7f664736f6c63430008140033",
  "linkReferences": {},
  "deployedLinkReferences": {}
}